:1004EC00520004303132333435363738392B2D2A1B
:1004FC002F28292E3D410001FF4100A1FF4100039F
:10050C00FF44006300000000440068000000004449
:10051C00006C000000004100020141006700410036
:10052C000000410053004100520060310070010195
:10053C00FFFFFF01010101FFFFFF010101010101AB
:10054C00FF010101010101FF0101FFFFFFFFFF009E
:0F055C000201010101020101FFFFFFFFFF020089
:0107B700221F
:0707A20090000174FFF0223A
:0707A9009000A174FFF02293
:0707B00090000374FFF0222A
:0B078300EF1FAC0670011E4C70F62248
:10071F00EFFDC374809480400DD3ED9409748094E1
:09072F008050037F01227F0022AB
:1003AA009000B6747FF0E4A3F075900FAF90EF64FD
:1003BA000F60767FE87E03120783AF90EF640F60C9
:1003CA006875900FAF90EF24F5601224FE60161442
:1003DA00601B2407701DE49000B6F080169000B6EA
:1003EA007401F0800E9000B67402F080069000B698
:1003FA007403F07590F0AF90EF2450601324E0601E
:10040A001824F0601D247070209000B6E0F0801966
:10041A009000B6E02404F080109000B6E02408F0C2
:10042A0080079000B6E0240CF09000B7E0FF339507
:10043A00E0FEC3EF9432EE648094805013AF90EFE5
:10044A0064F0600C7F8C7E00120783E004F080D990
:05045A009000B6E0FF78
:01045F00227A
:0107B800221E
:10073800900001E004F0E0FD3395E0FC74542DF5E1
:090748008274003CF583EFF022FD
:10070300900001E0FF3395E0FE74542FF5827400EE
:0B0713003EF583E0FF900001E014F0D1
:01071E0022B8
:10056C009000B11202979000A1E004F09000B1E06D
:10057C00FCA3E0FDA3E0FEA3E0FFC004C005C006A1
:10058C00C0079000A1E0FF3395E0FEEF7802C33383
:10059C00CE33CED8F92416F58274003EF583D007FD
:1005AC00D006D005D0041202979000B11202A3001D
:0905BC00000000E4900067F02249
:1006A3009000A1E004F0C004C005C006C007E0FF4D
:1006B3003395E0FEEF7802C333CE33CED8F9241658
:1006C300F58274003EF583D007D006D005D004022E
:0206D30002978C
:1006D5009000A1E0FF3395E0FEEF7802C333CE33FF
:1006E500CED8F92416F58274003EF583E0FCA3E02C
:0D06F500FDA3E0FEA3E0FF9000A1E014F0E3
:0107020022D4
:1005C50075B0FF7FE87E0312078320B00630B0FDCB
:1005D5007F0A2220B10630B1FD7F0B2220B2063002
:1005E500B2FD7F0C2220B30630B3FD7F0D2220B46F
:1005F5000630B4FD7F0E2220B50630B5FD7F0F22F3
:1006050020B60630B6FD7F102220B70630B7FD7F35
:0506150011227F7F228D
:100751007F7FEF647F70111205C5EF647F60012216
:080761001203AAEF647F60EAB5
:01076900226D
:1002D4001207519000B5EFF012071FEF6401703B55
:1002E400FFFE7D207C41900063E0F8A3E0F9A3E0E9
:1002F400FAA3E0FB1200FBC004C005C006C00790CF
:1003040000B5E0FCE412020BD003D002D001D0000F
:1003140012000A90006312029780799000B5E0F908
:10032400FB7A00640A70169000681202A3000000B1
:10033400009000537401F0900000F08057EB640BC0
:100344004A70169000681202A300000000E49000B6
:1003540053F090000004F0803BE9FB7A00640C70D9
:100364001890006C1202A3000000009000007405B5
:10037400F09000527401F0801BEB640D4A701590EC
:10038400006C1202A3000000009000007405F0E469
:10039400900052F09000B5E02404F582E43400F5B6
:0603A40083E0FF02079850
:0107B900221D
:0107BA00221C
:0107BB00221B
:0107BC00221A
:0107BD002219
:0107BE002218
:10061A0012076A1207A21207A9900000E0B40700A5
:10062A0050F790063225E073C140C145C14AC14F17
:10063A00C154C159C15E1202D480DE1207B980D9F1
:10064A001207BA80D41207BB80CF1207BC80CA1225
:09065A0007BD80C51207BE80C077
:10066300C2A58F807F017E00120674D2A77F057E0C
:010673000086
:10067400D3EF9400EE940040257DC7EDD39400742D
:1006840080948040127C01ECD39400748094804068
:0E069400031C80F31D80E4EF1F70D51E80D282
:0106A2002235
:0A078E00C2A7C2A6120663C2A7228A
:0A079800C2A7D2A6120663C2A72270
:10076A007F3812078E7F0C12078E7F0612078E7F44
:09077A000112078E7F8002078E38
:10000300020274E86480F8E933E83360110460F0B5
:10001300ED33EC337009E8FCE9FDEAFEEBFF220463
:1000230060DED3EB9FEA9EE99DE8C2E78CF0C2F75E
:1000330095F0400CE8CCF8E9CDF9EACEFAEBCFFB2A
:1000430012023F85D0F05804700320D5B3E8047042
:10005300075002B2D502027E92D5EC0460F7E4CCDD
:10006300C0E0C398F8603B94186008400DD0E0FBF3
:10007300020256E4FBFAC9FC8028E830E406E4C92E
:10008300FBE4CAFCE830E305E4C9CACBFCE8540747
:100093006010F8C3E913F9EA13FAEB13FBEC13FC52
:1000A300D8F130F52FC3E49CFCEF9BFFEE9AFEEDF5
:1000B30099FDD0E0FBEF4E4D4C701222DB030202A0
:1000C3007BEC2CFCEF33FFEE33FEED33FDED30E73D
:1000D300EB020256EF2BFFEE3AFEED39FDD0E0FBCB
:1000E30050130BBB000302027EED13FDEE13FEEF74
:0800F30013FFEC13FC0202569E
:1000FB00EC4D6011E8497017ED33EC3304600DE4FF
:10010B00FCFFFEFD22E933E8330470F8020274129F
:10011B00023F58046009E4CC2481500628500902A0
:10012B00027E28400302027BC0E0EB4A7044B98098
:10013B0006D0E0FB02026AEF4E701CBD8008EBFF9D
:10014B00EAFEE9FD80EBE98DF0A4FEE5F00201E4A7
:10015B00E9CDF9EAFEEBFFEF89F0A4FCE5F0CE89DF
:10016B00F0A42EFFE435F0CD89F0A42DFEE435F09C
:10017B008067EF4E7005BD80D780C3EF8BF0A4ACCA
:10018B00F0EE8BF0A42CFCE435F0F8EF8AF0A42C05
:10019B00E5F038FCE433CB8DF0A42CFCE5F03BF818
:1001AB00EE8AF0A42CFCE5F038F8E433CF89F0A408
:1001BB002CFCE5F038CF3400CE89F0A42FFFE5F00E
:1001CB003EFEE433C98DF0A42EFEE5F039CD8AF066
:1001DB00A42FFFE5F03EFEE43DFD33D0E0FB5007DE
:1001EB000BBB000F02027EEC2CFCEF33FFEE33FE59
:0601FB00ED33FD02025687
:1002010075F020800E75F010800575F0087D007E78
:10021100007F003392D530D503120289EC334010B0
:10022100EF33FFEE33FEED33FDEC33FCD5F0ED2281
:0E023100E5F0247EA2D513CC92E7CDCEFF22BD
:10023F00E9D2E7C933E833F892D5EDD2E7CD33EC05
:07024F0033FC5002B2D5227E
:10025600EC30E7100FBF000C0EBE00080DBD000409
:100266000BEB6014A2D5EB13FCED92E7FD2274FFB5
:10027600FCFDFEFF22E480F8A2D574FF13FC7D800E
:03028600E480EF22
:0300000002046097
:0C046000787FE4F6D8FD7581070204A740
:0E028900C3E49FFFE49EFEE49DFDE49CFC2286
:0C029700ECF0A3EDF0A3EEF0A3EFF022DA
:1002A300A8828583F0D083D0821202BA1202BA12D6
:1002B30002BA1202BAE473E493A3C583C5F0C583FB
:1002C300C8C582C8F0A3C583C5F0C583C8C582C8A5
:0102D3002208
:10046C0002061AE493A3F8E493A34003F68001F286
:10047C0008DFF48029E493A3F85407240CC8C33391
:10048C00C4540F4420C8834004F456800146F6DF60
:10049C00E4800B01020408102040809004ECE47E00
:1004AC00019360BCA3FF543F30E509541FFEE49355
:1004BC00A360010ECF54C025E060A840B8E493A31C
:1004CC00FAE493A3F8E493A3C8C582C8CAC583CA47
:1004DC00F0A3C8C582C8CAC583CADFE9DEE780BEFF
:01056B00008F
:00000001FF
