:031A120025660046
:10185E001223303132333435363738392B2D2A2F87
:10186E0028292E3D043E0000000004420000000026
:10187E00044600000000043500000000013B00019A
:0E188E003C00013D00012200013A000139003A
:0C19D500E4F541F540F53FF53EF53B22FE
:0C19E100E4F545F544F543F542F53C22E1
:0319C6001219E112
:0C19C900E4F549F548F547F546F53D22E8
:10189D007557FF75581A7559128F5D8E5C8D5B8C5F
:1018AD005A7B007A00794C12070B7FC01219F8E4AD
:1018BD00F54BC3E54B940874809480500E744C2501
:0B18CD004BF8E6FF121A02054B80E703
:0118D80022ED
:0B19ED00EF1FAC0670011E4C70F622CC
:10199400EFFDC374809480400DD3ED94097480945A
:0919A4008050037F01227F002224
:10165C00754B7FE4F54C75900FAF90EF640F6059AC
:10166C007FE87E031219EDAF90EF640F604B75901D
:10167C000FAF90EF24F5601024FE6011146013245A
:10168C00077012E4F54B800D754B018008754B0209
:10169C008003754B037590F0AF90EF2450600C24D1
:1016AC00E0600C24F0600C2470800E7404800674CE
:1016BC00088002740C254BF54BAF4CEF3395E0FED4
:1016CC00C3EF9432EE648094805012AF90EF64F0CC
:0F16DC00600B7F967E001219ED054C80DCAF4B42
:0116EB0022DC
:1017780075B0FF7FE87E031219ED20B00630B0FD8A
:101788007F0A2220B10630B1FD7F0B2220B206303D
:10179800B2FD7F0C2220B30630B3FD7F0D2220B4AA
:1017A8000630B4FD7F0E2220B50630B5FD7F0F222E
:1017B80020B60630B6FD7F102220B70630B7FD7F71
:0517C80011227F7F22C9
:101978007F7FEF647F7012121778EF647F60012217
:0B19880012165CEF647F60EA227F7F94
:011993002231
:10138E001219788F4AEF6411701474232FF8E6FF48
:10139E00121A02AF41AE40AD3FAC3E02189DE54A77
:1013AE006410700DE53B60030214AA753B01021434
:1013BE00A0AF4A121994EF6401600302145EE53B7C
:1013CE007035FFFE7D207C41AB41AA40A93FA83E6F
:1013DE001200FBC004C005C006C007AC4AE41202EE
:1013EE00ABD003D002D001D00012000A8F418E4044
:1013FE008D3F8C3E0214A0AB41AA40A93FA83EC02F
:10140E0000C001C002C003AC3BE41202AB8F528E8F
:10141E00518D508C4F7FCD7ECC7DCC7C3D1214AB4C
:10142E00C004C005C006C007AC4AE41202ABD0032C
:10143E00D002D001D0001200FBD003D002D001D0D8
:10144E000012000A8F418E408D3F8C3E053B80423C
:10145E00AF4A7E00EF640A70081219E1753A0180F6
:10146E000CEF640B4E700B1219E1E4F53A75220184
:10147E008020EF640C4E700B1219C9752205753958
:10148E0001800FEF640D4E70091219C9752205E423
:0C149E00F5397423254AF8E6FF121A0203
:0114AA00221F
:1018D9001219788F4A121994EF6401701AAC4A12DE
:1018E90002AB8F458E448D438C42752202742325A9
:0718F9004AF8E6FF121A0293
:0119000022C4
:1010BE001219788F4AEF6411703DF522E53A6401FA
:1010CE00AF41AE40AD3FAC3EAB45AA44A943A842AA
:1010DE00700512000A80031200068F418E408D3F6C
:1010EE008C3E7423254AF8E6FF121A02AF41AE4039
:1010FE00AD3FAC3E02189DE54A6410700DE53C60B4
:10110E0003021258753C0102124EAF4A121994EFA7
:10111E00640160030211B8E53C7035FFFE7D207C52
:10112E0041AB45AA44A943A8421200FBC004C00526
:10113E00C006C007AC4AE41202ABD003D002D00105
:10114E00D00012000A8F458E448D438C4202124EFF
:10115E00AB45AA44A943A842C000C001C002C003C7
:10116E00AC3CE41202AB8F528E518D508C4F7FCD22
:10117E007ECC7DCC7C3D1214ABC004C005C006C035
:10118E0007AC4AE41202ABD003D002D001D0001259
:10119E0000FBD003D002D001D00012000A8F458E82
:1011AE00448D438C42053C02124EAF4A7E00EF64E2
:1011BE000C700C1219C975220375390102124EEF0B
:1011CE00640D4E70151219C9752203E4F539742396
:1011DE00254AF8E6FF121A028066E54A640A702E66
:1011EE00E53A6401AF41AE40AD3FAC3EAB45AA44DB
:1011FE00A943A842700512000A80031200068F410F
:10120E008E408D3F8C3E752201753A018032E54A43
:10121E00640B702CE53A6401AF41AE40AD3FAC3E7D
:10122E00AB45AA44A943A842700512000A800312D6
:10123E0000068F418E408D3F8C3E752201E4F53ABB
:0A124E007423254AF8E6FF121A0285
:011258002273
:101901001219788F4A121994EF6401701AAC4A12B5
:1019110002AB8F498E488D478C467522047423256E
:071921004AF8E6FF121A026A
:01192800229C
:100B1E001219788F4A121994EF64016003020BC107
:100B2E00E53D7035FFFE7D207C41AB49AA48A947C3
:100B3E00A8461200FBC004C005C006C007AC4AE4BC
:100B4E001202ABD003D002D001D00012000A8F499E
:100B5E008E488D478C46020EB0AB49AA48A947A8CD
:100B6E0046C000C001C002C003AC3DE41202AB8F10
:100B7E00528E518D508C4F7FCD7ECC7DCC7C3D12D4
:100B8E0014ABC004C005C006C007AC4AE41202ABE9
:100B9E00D003D002D001D0001200FBD003D002D07F
:100BAE0001D00012000A8F498E488D478C46053DB4
:100BBE00020EB0AF4A7E00EF6410700DE53D60038B
:100BCE00020EB0753D01020EB0EF640A4E600302D4
:100BDE000CA3E53A64017053E5396401AB41AA40B8
:100BEE00A93FA83E701DC000C001C002C003AF499E
:100BFE00AE48AD47AC46AB45AA44A943A842120045
:100C0E00FB801BC000C001C002C003AB49AA48A9AB
:100C1E0047A846AF45AE44AD43AC42120204D003E2
:100C2E00D002D001D00012000A8059E5396401AF1C
:100C3E0041AE40AD3FAC3E701DC004C005C006C005
:100C4E0007AF49AE48AD47AC46AB45AA44A943A849
:100C5E00421200FB801BC004C005C006C007AB4992
:100C6E00AA48A947A846AF45AE44AD43AC421202CE
:100C7E0004A804A905AA06AB07D007D006D005D054
:100C8E00041200068F418E408D3F8C3E1219C675A0
:100C9E003A01020D6CE54A640B6003020D72E53AEF
:100CAE0064017053E5396401AB41AA40A93FA83EE7
:100CBE00701DC000C001C002C003AF49AE48AD47B1
:100CCE00AC46AB45AA44A943A8421200FB801BC008
:100CDE0000C001C002C003AB49AA48A947A846AF4D
:100CEE0045AE44AD43AC42120204D003D002D00153
:100CFE00D00012000A8059E5396401AF41AE40AD13
:100D0E003FAC3E701DC004C005C006C007AF49AE63
:100D1E0048AD47AC46AB45AA44A943A8421200FBD6
:100D2E00801BC004C005C006C007AB49AA48A9472E
:100D3E00A846AF45AE44AD43AC42120204A804A986
:100D4E0005AA06AB07D007D006D005D004120006C0
:100D5E008F418E408D3F8C3E1219C6E4F53A7522B6
:100D6E0001020EB0E54A640C7032E5396401AF45FC
:100D7E00AE44AD43AC42AB49AA48A947A84670055C
:100D8E001200FB80031202048F458E448D438C4269
:100D9E001219C9752203753901020EB0E54A640DA8
:100DAE007032E5396401AF45AE44AD43AC42AB4958
:100DBE00AA48A947A84670051200FB800312020438
:100DCE008F458E448D438C421219C9752203E4F56A
:100DDE0039020EB0E54A64116003020EB0E53A64C2
:100DEE00017053E5396401AB41AA40A93FA83E709A
:100DFE001DC000C001C002C003AF49AE48AD47AC34
:100E0E0046AB45AA44A943A8421200FB801BC00072
:100E1E00C001C002C003AB49AA48A947A846AF45C6
:100E2E00AE44AD43AC42120204D003D002D001D086
:100E3E000012000A8059E5396401AF41AE40AD3F62
:100E4E00AC3E701DC004C005C006C007AF49AE4819
:100E5E00AD47AC46AB45AA44A943A8421200FB805D
:100E6E001BC004C005C006C007AB49AA48A947A8C5
:100E7E0046AF45AE44AD43AC42120204A804A905E8
:100E8E00AA06AB07D007D006D005D0041200068FF5
:100E9E00418E408D3F8C3E1219E11219C9E4F53A8C
:100EAE00F522E54A6411600A7423254AF8E6FF022A
:100EBE001A027423254AF8E6FF121A02AF41AE4019
:070ECE00AD3FAC3E12189D80
:010ED50022FA
:101929001219788F4A121994EF6401701AAC4A128D
:1019390002AB8F498E488D478C4675220674232544
:071949004AF8E6FF121A0242
:011950002274
:100ED6001219788F4A121994EF64016003020F7990
:100EE600E53D7035FFFE7D207C41AB49AA48A94708
:100EF600A8461200FBC004C005C006C007AC4AE401
:100F06001202ABD003D002D001D00012000A8F49E2
:100F16008E488D478C46021098AB49AA48A947A827
:100F260046C000C001C002C003AC3DE41202AB8F54
:100F3600528E518D508C4F7FCD7ECC7DCC7C3D1218
:100F460014ABC004C005C006C007AC4AE41202AB2D
:100F5600D003D002D001D0001200FBD003D002D0C3
:100F660001D00012000A8F498E488D478C46053DF8
:100F7600021098AF4A7E00EF6410700DE53D6003E5
:100F8600021098753D01021098EF640A4E702FE525
:100F9600396401AF41AE40AD3FAC3EAB49AA48A96A
:100FA60047A84670051200FB80031202048F418E8B
:100FB600408D3F8C3E752201753A01021095E54A37
:100FC600640B702FE5396401AF41AE40AD3FAC3ED6
:100FD600AB49AA48A947A84670051200FB80031230
:100FE60002048F418E408D3F8C3E752201E4F53A16
:100FF600021095E54A640C702EE5396401AF41AEE6
:1010060040AD3FAC3EAB49AA48A947A84670051279
:1010160000FB80031202048F418E408D3F8C3E758B
:1010260039017522058068E54A640D7031E5396439
:1010360001AF41AE40AD3FAC3EAB49AA48A947A877
:101046004670051200FB80031202048F418E408D0C
:101056003F8C3EE4F5391219C97522058034E54AFC
:101066006411702EF522E5396401AF41AE40AD3F03
:10107600AC3EAB49AA48A947A84670051200FB80BA
:10108600031202048F418E408D3F8C3E1219E112ED
:1010960019C9E54A641170157423254AF8E6FF124A
:1010A6001A02AF41AE40AD3FAC3E02189D742325F7
:0710B6004AF8E6FF121A02DE
:0110BD002210
:051A0C001219788F4A59
:011A110022B2
:1017CD001219ADE522B4080050F99017DEF828285B
:1017DD00730217F60217FB02180002180502180A09
:1017ED0002180F02181402181912138E80D5121830
:1017FD00D980D01210BE80CB12190180C6120B1EDB
:10180D0080C112192980BC120ED680B7121A0C8015
:01181D00B218
:10181E00C2A58F807F017E0012182FD2A77F057E72
:01182E0000B9
:10182F00D3EF9400EE940040257DC7EDD394007460
:10183F0080948040127C01ECD3940074809480409B
:0E184F00031C80F31D80E4EF1F70D51E80D2B5
:01185D002268
:0A19F800C2A7C2A612181EC2A72241
:0A1A0200C2A7D2A612181EC2A72226
:1019AD007F381219F87F0C1219F87F061219F87F7B
:0919BD00011219F87F800219F8EB
:10000300020314E86480F8E933E83360110460F014
:10001300ED33EC337009E8FCE9FDEAFEEBFF220463
:1000230060DED3EB9FEA9EE99DE8C2E78CF0C2F75E
:1000330095F0400CE8CCF8E9CDF9EACEFAEBCFFB2A
:100043001202DF85D0F05804700320D5B3E80470A2
:10005300075002B2D502031E92D5EC0460F7E4CC3C
:10006300C0E0C398F8603B94186008400DD0E0FBF3
:100073000202F6E4FBFAC9FC8028E830E406E4C98E
:10008300FBE4CAFCE830E305E4C9CACBFCE8540747
:100093006010F8C3E913F9EA13FAEB13FBEC13FC52
:1000A300D8F130F52FC3E49CFCEF9BFFEE9AFEEDF5
:1000B30099FDD0E0FBEF4E4D4C701222DB0302039F
:1000C3001BEC2CFCEF33FFEE33FEED33FDED30E79D
:1000D300EB0202F6EF2BFFEE3AFEED39FDD0E0FB2B
:1000E30050130BBB000302031EED13FDEE13FEEFD3
:0800F30013FFEC13FC0202F6FE
:1000FB00EC4D6011E8497017ED33EC3304600DE4FF
:10010B00FCFFFEFD22E933E8330470F802031412FE
:10011B0002DF58046009E4CC248150062850090200
:10012B00031E28400302031BC0E0EB4A7044B98056
:10013B0006D0E0FB02030AEF4E701CBD8008EBFFFC
:10014B00EAFEE9FD80EBE98DF0A4FEE5F00201E4A7
:10015B00E9CDF9EAFEEBFFEF89F0A4FCE5F0CE89DF
:10016B00F0A42EFFE435F0CD89F0A42DFEE435F09C
:10017B008067EF4E7005BD80D780C3EF8BF0A4ACCA
:10018B00F0EE8BF0A42CFCE435F0F8EF8AF0A42C05
:10019B00E5F038FCE433CB8DF0A42CFCE5F03BF818
:1001AB00EE8AF0A42CFCE5F038F8E433CF89F0A408
:1001BB002CFCE5F038CF3400CE89F0A42FFFE5F00E
:1001CB003EFEE433C98DF0A42EFEE5F039CD8AF066
:1001DB00A42FFFE5F03EFEE43DFD33D0E0FB5007DE
:1001EB000BBB000F02031EEC2CFCEF33FFEE33FEB8
:0601FB00ED33FD0202F6E7
:1002010002031EEC5D046005E85904700302031447
:100211001202DF580460F6EC4860F2EC7004FDFE57
:10022100FF22C860DB2481C85009C39860025006D0
:1002310002031B9850CAF582E9294B4A7005AB822B
:1002410002030A75F0007C1A7880C3EF9BEE9AEDE9
:1002510099400DC3EF9BFFEE9AFEED99FDE842F048
:10026100DC23ACF0D0E0FFD0E0FED0E0FDAB82209B
:10027100E7101BEB60BAEC2CFCEF33FFEE33FEED25
:1002810033FD0202F6E803F830E705C0F075F0002F
:10029100EF2FFFEE33FEED33FD40B830E7C280AA09
:1002A10075F020800E75F010800575F0087D007ED8
:1002B100007F003392D530D50312064BEC3340104A
:1002C100EF33FFEE33FEED33FDEC33FCD5F0ED22E1
:0E02D100E5F0247EA2D513CC92E7CDCEFF221D
:1006AF00E56B2457F8E6056B22785430070278572C
:1006BF00E475F0011206790205F32000EB7F2ED2CC
:1006CF00008018EF540F2490D43440D4FF30040B23
:1006DF00EF24BFB41A0050032461FFE56C600215CC
:1006EF006C056FE56F7002056E30070D7854E47579
:1006FF00F001120679EF0206390219517403D2077D
:10070F008003E4C207F56B8B548A558956E4F56C68
:10071F00F56EF56FE56C60077F201206EA80F575C0
:10072F006DFFC201C200C202C203C205C206C208E7
:10073F001206B8FF700D3007057F001206FBAF6F72
:10074F00AE6E22B4255FC2D5C2041206B8FF24D004
:10075F00B40A00501A75F00A786C30D50508B6FF48
:10076F000106C6A426F620D5047002D20380D92430
:10077F00CFB41A00EF5004C2E5D2040209E8D20147
:10078F0080C6D20080C0D20280BCD2D580BAD2053A
:10079F0080B47F201206EA2002077401B56C004076
:1007AF00F11206AFFF1206EA020723D208D2068023
:1007BF00951206AFFB1206AFFA1206AFF94A4B704D
:1007CF000679DF7A0A7BFF20022EE56C602A7E0015
:1007DF008E8275830012060C60060EEE656D70F04A
:1007EF00C2D5EBC0E0EAC0E0E9C0E0EE120A48D0A3
:1007FF00E0F9D0E0FAD0E0FB1205F3FF60AAEBC0FE
:10080F00E0EAC0E0E9C0E01206EAD0E02401F9D046
:10081F00E03400FAD0E0FBE56D0460DCD56DD980E3
:10082F0087D20280A2120A2B60F7E56D70010412C5
:10083F000404A96D600DE56D600914F56D120AD2FF
:10084F00EF60F3EA30E702F404C3995077EAF42536
:10085F006D0430E701E404F56D800D120A2B60C1C1
:10086F00EA056D256D120404EA786AF630E701E4B3
:10087F00256D04D56D0420050114120A48E4C0E06B
:10088F00120AD2786AE6601320E70714F61206D22E
:10089F00802204F6D0E014C0E07F001206D2E56D8E
:1008AF0060071206C9156D800B3005031206C9D0FB
:1008BF00E0020723D0E00480C5120A2B60A0E56D8B
:1008CF0004120404786AEAF6E56D2005026001045B
:0508DF002404120A4888
:1008E40074FF04C0E0120AD21206D2E56D2005029C
:1008F40060031206C9D0E0B56DE87F451206DC78C6
:100904006AE67F2B30E7047F2DF404C0E01206EA88
:10091400D0E075F00A84C0F01206D3D0E01206D3FA
:10092400020723791080027908C206C2088008D21F
:10093400D5790A8004790AC2D5E56D047002F56D93
:10094400E4FAFDFEFF1206AFFC7B08200113120639
:10095400AFFD7B1030000A1206AFFE1206AFFF7B1C
:1009640020EC3382D592D55013C3E43000069FFFA8
:10097400E49EFEE42001039DFDE49CFCE4CBF8C26C
:1009840001EC700CCFCECDCCE824F8F870F38017CE
:10099400C3EF33FFEE33FEED33FDEC33FCEB33FBFF
:1009A400994002FB0FD8E9EB300105F8D0E0C448C8
:1009B400B201C0E00AEC4D4E4F78207B0070C2EAD1
:1009C400B56D0040BCC0E0120A4AD0F0D0E020016E
:1009D40004C4C0E0C4B201C0F01206D3D0F0D5F014
:1009E400EB02072312068907C05309275807914CC5
:1009F400078D42092B4F09334409334907A643099C
:100A04003955086A4608C8450834470AFF5007950F
:100A14002D07992E07BC2B079D2307BA200AE82A25
:100A2400075548000007B4E56DB4FF03756D061261
:100A340006AFFC1206AFFD1206AFFE1206AFFF783A
:100A440063020433790AA2D5200314300509B910CE
:100A5400020404B9080104A2D520060250010420AE
:100A640002689202B56C005034C0E07F2030031954
:100A74007F30A20272067205500F120AA1C202C28E
:100A840006C205C2087F30800F300503E9C0E012BA
:100A940006EA300503D0E0F9D0E0B56CCC30051798
:100AA4007F30B9100C1206EA7F583004077F788033
:100AB40003B908031206EA3002057F2D0206EA7F15
:100AC400202008F87F2B2006F322920280CF7F009B
:100AD400B4070050052463F8E6FF22286E756C6C99
:100AE4002900D2011206AF3001F8C201786C30D56A
:100AF4000108F60207552D504349581206AF240346
:100B0400B405004001E4900AFA931206DB743A1229
:0A0B140006DBD203756C040209270A
:1014AB008F4E8E4D8D4C8C4BE4FFFE7D807C3FAB85
:1014BB004EAA4DA94CA84B1203437009AF4EAE4D2B
:1014CB00AD4CAC4B22AF4EAE4DAD4CAC4B120329D9
:1014DB00FBAF52AE51AD50AC4F120329FFBF010809
:1014EB00E4FFFE7D807C3F22EF64046022EB64040A
:1014FB00601DBB0127E4FFFEFDFCAB52AA51A950B6
:10150B00A84F12034360084006E4FFFEFDFC227463
:10151B00FFF552F551F550F54F0215B9E4F553F5BA
:10152B0054FFFEFDFCAB4EAA4DA94CA84B12034336
:10153B00504BAF52AE51AD50AC4F1203CD8E538FBB
:10154B0054AC53AD54EC1202A6C8ECC8C9EDC9CAD1
:10155B00EECACBEFCBAF52AE51AD50AC4F12000633
:10156B00E4FBFAF9F812034370A5AF4EAE4DAD4C48
:10157B00AC4B1203BC8F4E8E4D8D4C8C4BAF4EAE85
:10158B004DAD4CAC4B12128DAB52AA51A950A84F7A
:10159B001200FB1215FA8F528E518D508C4FE55461
:1015AB0030E00B1203BC8F528E518D508C4FAF52CB
:0715BB00AE51AD50AC4F2210
:1002DF00E9D2E7C933E833F892D5EDD2E7CD33EC65
:0702EF0033FC5002B2D522DE
:1002F600EC30E7100FBF000C0EBE00080DBD000469
:100306000BEB6014A2D5EB13FCED92E7FD2274FF14
:10031600FCFDFEFF22E480F8A2D574FF13FC7D806D
:03032600E480EF81
:10032900ED33EC33601004700FED547F70057402E7
:0A03390092E0227404220422E42260
:1003430074F8CC6480CCC86480C8F58204604FC361
:10035300EB9FF5F0EA9E42F0E99D42F0E89C45F000
:10036300603C501DE5825FFFE582D313CB5BCBF48A
:100373002B5582FB50280ABA002409B900200880B3
:100383001DE5825BFBE582D313CF5FCFF4C3132F4D
:100393005582FF50090EBE00050DBD00010CC3EBD5
:1003A3009FF5F0EA9E42F0E99D42F0E89C45F0603B
:0903B30007CC4820E701B3EC225D
:1003BC00ED33EC33600A047003BD8004ECB2E7FC4F
:0103CC00220E
:1003CD00EDD2E7CD33EC3392D524814006E4FFFE28
:1003DD00FDFC22FCE4CFCECDCC24E0501174FF8087
:1003ED00EDC3CC13CCCD13CDCE13CECF13CF047024
:0703FD00F030D5DE02064BD3
:10040400F920E72824F950037907E4F42402FB18BF
:10041400DBFDE624FB5014E9600DE4F618E604F66F
:0F042400B40A08E4F6D9F57401F60A22C2D5220B
:10043300ED33EC3392D5FA602AB4FF33EDC2E77B98
:10044300FF60067A047958E4227A04796120D5049E
:100453007A04795C224E614E002B494E46002D49A9
:100463004E4600E47A08F608DAFC7B00740722E8BB
:10047300C0E0ECC0E0EDC0E0EEC0E0EFC0E0EA7544
:10048300F010A4CAABF075F04DA42BFBE435F0FCDF
:10049300EA2410FAEB34C5FBEC34D9FCEDC2E7FFD8
:1004A30075F056A4F42411C5F0F434C58FF0A42AD2
:1004B300E5F03BE43CF620E714120566D0E0FFD0FC
:1004C300E0FED0E0FDD0E0FC1202048014F404123C
:1004D3000566D0E0FFD0E0FED0E0FDD0E0FC1200E6
:1004E300FBD0E0F8E6FAEDD2E7CD33EC332482FB20
:1004F300E4C3CF33CFCE33CECD33CD33DBF37B0762
:1005030075F00A846004F6081B0AE5F0F6088FF01C
:10051300740AA4FFACF08EF0740AA42CFEACF05065
:10052300010C8DF0740AA42CFDE435F0F608DBDE33
:0305330074072228
:1015C20033DA929E35B16011377FE5FE3921848985
:1015D2003AAEC3FF3C1D955B3D6358473E75FDF037
:1015E2003F3172183F800000C2D502031E0203146D
:1015F200BD80FA50F302031BED33EC330460F17B40
:101602003B7AAA79B8783F1200FBED33EC3392D5DE
:10161200247B5011A2D570DB500BED448024045082
:1016220004A2D580CEEFFBEEFAEDF9ECF81203CD71
:10163200EFF582F404FC1202AB12000AC08290158C
:10164200C274091205B5ED33CC33D0F092D525F032
:0A165200A2D57001C313CC13FD22D2
:101259003E9248DA3ECCCCCD3F2AAAAB40000000F2
:101269003F8000003F9837F03FB504F33FD744FC77
:101279003E3172173EB172173F0515913EDE5BD9BB
:10128900D2008002C200EDD2E7F8CD33EC3304700E
:101299000BBD800592D502031E02031440FBD31433
:1012A90060F2F5F07C3FEE7A00C39496C8948B40C7
:1012B900230AC89469C8941A401A0AC89468C89439
:1012C9001F40110AC8945AC89425400805F07A00AD
:1012D900CDC2E7CDC0F08C558D568E578F58EA2375
:1012E90023C0E02469F582E43412F58312066912F9
:1012F900000AECC0E0EDC0E0EEC0E0EFC0E012068D
:1013090059A855A956AA57AB58120006D0E0FBD0E8
:10131900E0FAD0E0F9D0E0B2E7F81202048C558D7A
:10132900568E578F5890125974031205A6A855A9BD
:1013390056AA57AB581200FBD0E0600F2475F5820E
:10134900E43412F58312066912000A8C558D568E03
:10135900578F58D0E0C3947FFDE49400FC1202A695
:101369007B187A727931783F1200FBA855A956AAE1
:1013790057AB5812000A30000B7BD97A5B79DE78BB
:051389003E1200FB22F2
:100536003F8000004120000042C80000447A0000CD
:10054600461C400047C35000497424004B1896804F
:100556004CBEBC205A0E1BCA6753C21C749DC5AE46
:10056600FB60065407601C2323120594EB54386085
:100576000912058012058F1200FBECF8EDF9EEFA70
:10058600EFCB22EB12058F80F1543803241C900523
:1005960036FE93FC0EEE93FD0EEE930ECE93FF22E7
:1005A600C0E0EFFBEEFAEDF9ECF81200FBD0E0F557
:1005B600F0EFFBEEFAEDF9ECF8120659A3A3A3A3AC
:1005C600E8C0E0E9C0E0EAC0E0EBC0E0C0F012003D
:1005D600FB120669A3A3A3A312000AD0F0D0E0FB86
:0D05E600D0E0FAD0E0F9D0E0F8D5F0D42252
:030000000216ECF9
:0C16EC00787FE4F6D8FD75816F0217339B
:1005F300BB010689828A83E0225002E722BBFE0206
:09060300E32289828A83E4932238
:10060C00BB010CE58229F582E5833AF583E02250A3
:10061C0006E92582F8E622BBFE06E92582F8E222ED
:0D062C00E58229F582E5833AF583E4932207
:10063900BB010689828A83F0225002F722BBFE01A0
:02064900F3229A
:0E064B00C3E49FFFE49EFEE49DFDE49CFC22C0
:10065900E493FC740193FD740293FE740393FF22E7
:10066900E493F8740193F9740293FA740393FB22E7
:10067900FAE6FB0808E6F925F0F618E6CA3AF62282
:10068900D083D082F8E4937012740193700DA3A300
:1006990093F8740193F5828883E473740293686014
:0606A900EFA3A3A380DF14
:10195100EFB40A07740D12195C740A309811A89932
:10196100B8130CC2983098FDA899C298B811F630F6
:0719710099FDC299F59922CE
:1016F8000217CDE493A3F8E493A34003F68001F224
:1017080008DFF48029E493A3F85407240CC8C333F2
:10171800C4540F4420C8834004F456800146F6DFC1
:10172800E4800B010204081020408090185EE47EDB
:10173800019360BCA3FF543F30E509541FFEE493B6
:10174800A360010ECF54C025E060A840B8E493A37D
:10175800FAE493A3F8E493A3C8C582C8CAC583CAA8
:10176800F0A3C8C582C8CAC583CADFE9DEE780BE60
:01189C00004B
:00000001FF
