:0E01800053756E207869616F2066656E6700AA
:1001380078087C007D007BFF7A0179807E007F0E45
:1001480011D375160E316CE4F517C3E517940D74C9
:10015800809480500D74082517F8E6FF31A4051720
:0401680080E880FEAD
:1000F900C2A58F807F017E003109D2A77F057E00CE
:10010900D3EF9400EE940040257DC7EDD39400749D
:1001190080948040127C01ECD394007480948040D8
:0E012900031C80F31D80E4EF1F70D51E80D2F2
:0101370022A5
:0A019A00C2A7C2A61200F9C2A722F4
:0A01A400C2A7D2A61200F9C2A722DA
:10016C007F38319A7F0C319A7F06319A7F01319A10
:04017C007F80219AC5
:0300000002018E6C
:0C018E00787FE4F6D8FD75811702013877
:10000300E709F608DFFA8046E709F208DFFA803EDF
:1000130088828C83E709F0A3DFFA8032E309F608CC
:10002300DFFA8078E309F208DFFA807088828C8334
:10003300E309F0A3DFFA806489828A83E0A3F608E8
:10004300DFFA805889828A83E0A3F208DFFA804CC2
:1000530080D280FA80C680D4806980F28033801099
:1000630080A680EA809A80A880DA80E280CA803302
:1000730089828A83ECFAE493A3C8C582C8CCC5837A
:10008300CCF0A3C8C582C8CCC583CCDFE9DEE7804A
:100093000D89828A83E493A3F608DFF9ECFAA9F0C9
:1000A300EDFB2289828A83ECFAE0A3C8C582C8CC1F
:1000B300C583CCF0A3C8C582C8CCC583CCDFEADE38
:1000C300E880DB89828A83E493A3F208DFF980CC9A
:1000D30088F0EF60010E4E60C388F0ED2402B40493
:1000E3000050B9F582EB2402B4040050AF2323453A
:0600F3008223900053730C
:00000001FF
