:03145C0025660002
:1012CF001223303132333435363738392B2D2A2F1C
:1012DF0028292E3D043E00000000044200000000BB
:1012EF00044600000000043500000000013B00012F
:0E12FF003C00013D00012200013A00013900CF
:10130E007557FF75581475595C8F5D8E5C8D5B8CAF
:10131E005A7B007A00794C1205C37FC0121442E446
:10132E00F54BC3E54B940874809480500E744C2595
:0B133E004BF8E6FF12144C054B80E753
:011349002281
:0B143700EF1FAC0670011E4C70F62287
:10140500EFFDC374809480400DD3ED9409748094EE
:091415008050037F01227F0022B8
:1010CD00754B7FE4F54C75900FAF90EF640F605941
:1010DD007FE87E03121437AF90EF640F604B75906D
:1010ED000FAF90EF24F5601024FE601114601324EF
:1010FD00077012E4F54B800D754B018008754B029E
:10110D008003754B037590F0AF90EF2450600C2465
:10111D00E0600C24F0600C2470800E740480067462
:10112D00088002740C254BF54BAF4CEF3395E0FE68
:10113D00C3EF9432EE648094805012AF90EF64F060
:0F114D00600B7F967E00121437054C80DCAF4B91
:01115C002270
:1011E90075B0FF7FE87E0312143720B00630B0FDDA
:1011F9007F0A2220B10630B1FD7F0B2220B20630D2
:10120900B2FD7F0C2220B30630B3FD7F0D2220B43E
:101219000630B4FD7F0E2220B50630B5FD7F0F22C2
:1012290020B60630B6FD7F102220B70630B7FD7F05
:0512390011227F7F225D
:1013E9007F7FEF647F70121211E9EF647F60012241
:0B13F9001210CDEF647F60EA227F7FBE
:0114040022C5
:10100F001213E98F4AEF6411701474232FF8E6FF5F
:10101F0012144CAF41AE40AD3FAC3E02130EAF4A7F
:10102F00121405EF64017034FFFE7D207C41AB414B
:10103F00AA40A93FA83E1200FBC004C005C006C0CD
:10104F0007AC4AE41202ABD003D002D001D0001299
:10105F00000A8F418E408D3F8C3E8057E54AFB7AC8
:10106F0000640A700DF545F544F543F542753A01F4
:10107F008010EB640B4A700FF545F544F543F542CC
:10108F00F53A752201802CE54AFB7A00640C70104A
:10109F00F549F548F547F546752205753901801371
:1010AF00EB640D4A700DF549F548F547F546752285
:0D10BF0005F5397423254AF8E6FF12144C9C
:0110CC002201
:10134A001213E98F4A121405EF6401701AAC4A129B
:10135A0002AB8F458E448D438C427522027423253D
:07136A004AF8E6FF12144CE3
:011371002259
:100EDF001213E98F4AEF6411703DF522E53A640170
:100EEF00AF41AE40AD3FAC3EAB45AA44A943A8428B
:100EFF00700512000A80031200068F418E408D3F4D
:100F0F008C3E7423254AF8E6FF12144CAF41AE40D5
:100F1F00AD3FAC3E02130EAF4A121405EF640170E1
:100F2F0035FFFE7D207C41AB45AA44A943A8421260
:100F3F0000FBC004C005C006C007AC4AE41202ABF8
:100F4F00D003D002D001D00012000A8F458E448DFD
:100F5F00438C42021004E54AFB7A00640C7011F5D1
:100F6F0049F548F547F54675220375390102100416
:100F7F00EB640D4A7019F549F548F547F5467522AA
:100F8F0003F5397423254AF8E6FF12144C8066E501
:100F9F004A640A702EE53A6401AF41AE40AD3FACF2
:100FAF003EAB45AA44A943A842700512000A80032C
:100FBF001200068F418E408D3F8C3E752201753A8F
:100FCF00018032E54A640B702CE53A6401AF41AE03
:100FDF0040AD3FAC3EAB45AA44A943A842700512B1
:100FEF00000A80031200068F418E408D3F8C3E75A4
:0F0FFF002201E4F53A7423254AF8E6FF12144C58
:01100E0022BF
:101372001213E98F4A121405EF6401701AAC4A1273
:1013820002AB8F498E488D478C4675220474232503
:071392004AF8E6FF12144CBB
:011399002231
:1009D6001213E98F4A121405EF64017035FFFE7D8C
:1009E600207C41AB49AA48A947A8461200FBC0048F
:1009F600C005C006C007AC4AE41202ABD003D00261
:100A0600D001D00012000A8F498E488D478C4602CD
:100A16000D21E54A640A6003020AF2E53A640170B0
:100A260053E5396401AB41AA40A93FA83E701DC0F9
:100A360000C001C002C003AF49AE48AD47AC46ABEB
:100A460045AA44A943A8421200FB801BC000C0016E
:100A5600C002C003AB49AA48A947A846AF45AE4461
:100A6600AD43AC42120204D003D002D001D0001232
:100A7600000A8059E5396401AF41AE40AD3FAC3E56
:100A8600701DC004C005C006C007AF49AE48AD47DB
:100A9600AC46AB45AA44A943A8421200FB801BC042
:100AA60004C005C006C007AB49AA48A947A846AF77
:100AB60045AE44AD43AC42120204A804A905AA06F9
:100AC600AB07D007D006D005D0041200068F418EA2
:100AD600408D3F8C3EE4F545F544F543F542F54936
:100AE600F548F547F546753A01020BC8E54A640B29
:100AF6006003020BCEE53A64017053E5396401AB3D
:100B060041AA40A93FA83E701DC000C001C002C056
:100B160003AF49AE48AD47AC46AB45AA44A943A886
:100B2600421200FB801BC000C001C002C003AB49DB
:100B3600AA48A947A846AF45AE44AD43AC42120207
:100B460004D003D002D001D00012000A8059E53942
:100B56006401AF41AE40AD3FAC3E701DC004C00560
:100B6600C006C007AF49AE48AD47AC46AB45AA4440
:100B7600A943A8421200FB801BC004C005C006C0E2
:100B860007AB49AA48A947A846AF45AE44AD43AC12
:100B960042120204A804A905AA06AB07D007D0068C
:100BA600D005D0041200068F418E408D3F8C3EE466
:100BB600F545F544F543F542F549F548F547F5465B
:100BC600F53A752201020D21E54A640C7038E539C3
:100BD6006401AF45AE44AD43AC42AB49AA48A94710
:100BE600A84670051200FB80031202048F458E444E
:100BF6008D438C42E4F549F548F547F546752203E1
:100C0600753901020D21E54A640D7037E539640135
:100C1600AF45AE44AD43AC42AB49AA48A947A84646
:100C260070051200FB80031202048F458E448D432B
:100C36008C42E4F549F548F547F546752203F53942
:100C4600020D21E54A64116003020D21E53A6401B3
:100C56007053E5396401AB41AA40A93FA83E701D17
:100C6600C000C001C002C003AF49AE48AD47AC46A4
:100C7600AB45AA44A943A8421200FB801BC000C092
:100C860001C002C003AB49AA48A947A846AF45AE72
:100C960044AD43AC42120204D003D002D001D000CE
:100CA60012000A8059E5396401AF41AE40AD3FAC50
:100CB6003E701DC004C005C006C007AF49AE48ADB2
:100CC60047AC46AB45AA44A943A8421200FB801B89
:100CD600C004C005C006C007AB49AA48A947A84634
:100CE600AF45AE44AD43AC42120204A804A905AA1E
:100CF60006AB07D007D006D005D0041200068F41F8
:100D06008E408D3F8C3EE4F545F544F543F542F5BE
:100D160049F548F547F546F53AF522E54A64116086
:100D26000A7423254AF8E6FF02144C7423254AF870
:100D3600E6FF12144CAF41AE40AD3FAC3E12130E6F
:010D4600228A
:10139A001213E98F4A121405EF6401701AAC4A124B
:1013AA0002AB8F498E488D478C46752206742325D9
:0713BA004AF8E6FF12144C93
:0113C1002209
:100D47001213E98F4A121405EF64017035FFFE7D17
:100D5700207C41AB49AA48A947A8461200FBC0041A
:100D6700C005C006C007AC4AE41202ABD003D002EC
:100D7700D001D00012000A8F498E488D478C460259
:100D87000EB9E54A640A7038E5396401AF41AE40EF
:100D9700AD3FAC3EAB49AA48A947A846700512002B
:100DA700FB80031202048F418E408D3F8C3EE4F599
:100DB70049F548F547F546752201753A01020EB91E
:100DC700E54A640B7037E5396401AF41AE40AD3F8A
:100DD700AC3EAB49AA48A947A84670051200FB805C
:100DE700031202048F418E408D3F8C3EE4F549F596
:100DF70048F547F546752201F53A020EB9E54A640A
:100E07000C7034E5396401AF41AE40AD3FAC3EAB49
:100E170049AA48A947A84670051200FB8003120299
:100E2700048F418E408D3F8C3EE4F549F548F547E8
:100E3700F5467539018037E54A640D7036E5396442
:100E470001AF41AE40AD3FAC3EAB49AA48A947A868
:100E57004670051200FB80031202048F418E408DFD
:100E67003F8C3EE4F549F548F547F546F5397522D7
:100E770005803FE54A64117039F522E5396401AF11
:100E870041AE40AD3FAC3EAB49AA48A947A8467022
:100E9700051200FB80031202048F418E408D3F8CA8
:100EA7003EE4F549F548F547F546F545F544F5437C
:100EB700F542E54A641170157423254AF8E6FF12D6
:100EC700144CAF41AE40AD3FAC3E02130E74232528
:070ED7004AF8E6FF12144C7B
:010EDE0022F1
:051456001213E98F4AAA
:01145B00226E
:10123E0012141EE522B4080050F990124FF8282817
:10124E007302126702126C02127102127602127B84
:10125E0002128002128502128A12100F80D512130A
:10126E004A80D0120EDF80CB12137280C61209D6BE
:10127E0080C112139A80BC120D4780B7121456808B
:01128E00B2AD
:10128F00C2A58F807F017E001212A0D2A77F057E9C
:01129F00004E
:1012A000D3EF9400EE940040257DC7EDD3940074F5
:1012B00080948040127C01ECD39400748094804030
:0E12C000031C80F31D80E4EF1F70D51E80D24A
:0112CE0022FD
:0A144200C2A7C2A612128FC2A72291
:0A144C00C2A7D2A612128FC2A72277
:10141E007F381214427F0C1214427F061214427F40
:09142E00011214427F80021442F5
:10000300020314E86480F8E933E83360110460F014
:10001300ED33EC337009E8FCE9FDEAFEEBFF220463
:1000230060DED3EB9FEA9EE99DE8C2E78CF0C2F75E
:1000330095F0400CE8CCF8E9CDF9EACEFAEBCFFB2A
:100043001202DF85D0F05804700320D5B3E80470A2
:10005300075002B2D502031E92D5EC0460F7E4CC3C
:10006300C0E0C398F8603B94186008400DD0E0FBF3
:100073000202F6E4FBFAC9FC8028E830E406E4C98E
:10008300FBE4CAFCE830E305E4C9CACBFCE8540747
:100093006010F8C3E913F9EA13FAEB13FBEC13FC52
:1000A300D8F130F52FC3E49CFCEF9BFFEE9AFEEDF5
:1000B30099FDD0E0FBEF4E4D4C701222DB0302039F
:1000C3001BEC2CFCEF33FFEE33FEED33FDED30E79D
:1000D300EB0202F6EF2BFFEE3AFEED39FDD0E0FB2B
:1000E30050130BBB000302031EED13FDEE13FEEFD3
:0800F30013FFEC13FC0202F6FE
:1000FB00EC4D6011E8497017ED33EC3304600DE4FF
:10010B00FCFFFEFD22E933E8330470F802031412FE
:10011B0002DF58046009E4CC248150062850090200
:10012B00031E28400302031BC0E0EB4A7044B98056
:10013B0006D0E0FB02030AEF4E701CBD8008EBFFFC
:10014B00EAFEE9FD80EBE98DF0A4FEE5F00201E4A7
:10015B00E9CDF9EAFEEBFFEF89F0A4FCE5F0CE89DF
:10016B00F0A42EFFE435F0CD89F0A42DFEE435F09C
:10017B008067EF4E7005BD80D780C3EF8BF0A4ACCA
:10018B00F0EE8BF0A42CFCE435F0F8EF8AF0A42C05
:10019B00E5F038FCE433CB8DF0A42CFCE5F03BF818
:1001AB00EE8AF0A42CFCE5F038F8E433CF89F0A408
:1001BB002CFCE5F038CF3400CE89F0A42FFFE5F00E
:1001CB003EFEE433C98DF0A42EFEE5F039CD8AF066
:1001DB00A42FFFE5F03EFEE43DFD33D0E0FB5007DE
:1001EB000BBB000F02031EEC2CFCEF33FFEE33FEB8
:0601FB00ED33FD0202F6E7
:1002010002031EEC5D046005E85904700302031447
:100211001202DF580460F6EC4860F2EC7004FDFE57
:10022100FF22C860DB2481C85009C39860025006D0
:1002310002031B9850CAF582E9294B4A7005AB822B
:1002410002030A75F0007C1A7880C3EF9BEE9AEDE9
:1002510099400DC3EF9BFFEE9AFEED99FDE842F048
:10026100DC23ACF0D0E0FFD0E0FED0E0FDAB82209B
:10027100E7101BEB60BAEC2CFCEF33FFEE33FEED25
:1002810033FD0202F6E803F830E705C0F075F0002F
:10029100EF2FFFEE33FEED33FD40B830E7C280AA09
:1002A10075F020800E75F010800575F0087D007ED8
:1002B100007F003392D530D503120523EC33401073
:1002C100EF33FFEE33FEED33FDEC33FCD5F0ED22E1
:0E02D100E5F0247EA2D513CC92E7CDCEFF221D
:10056700E56B2457F8E6056B227854300702785775
:10057700E475F0011205310204CB2000EB7F2ED287
:10058700008018EF540F2490D43440D4FF30040B6C
:10059700EF24BFB41A0050032461FFE56C60021515
:1005A7006C056FE56F7002056E30070D7854E475C2
:1005B700F001120531EF0205110213C27403D207CD
:1005C7008003E4C207F56B8B548A558956E4F56CB2
:1005D700F56EF56FE56C60077F201205A280F57553
:1005E7006DFFC201C200C202C203C205C206C20831
:1005F700120570FF700D3007057F001205B3AF6F4E
:10060700AE6E22B4255FC2D5C204120570FF24D096
:10061700B40A00501A75F00A786C30D50508B6FF91
:100627000106C6A426F620D5047002D20380D92479
:10063700CFB41A00EF5004C2E5D2040208A0D201D9
:1006470080C6D20080C0D20280BCD2D580BAD20583
:1006570080B47F201205A22002077401B56C004008
:10066700F1120567FF1205A20205DBD208D2068048
:1006770095120567FB120567FA120567F94A4B7071
:100687000679977A097BFF20022EE56C602A7E00A7
:100697008E827583001204E460060EEE656D70F0BD
:1006A700C2D5EBC0E0EAC0E0E9C0E0EE120900D035
:1006B700E0F9D0E0FAD0E0FB1204CBFF60AAEBC070
:1006C700E0EAC0E0E9C0E01205A2D0E02401F9D0D9
:1006D700E03400FAD0E0FBE56D0460DCD56DD9802D
:1006E70087D20280A21208E360F7E56D7001041259
:1006F7000329A96D600DE56D600914F56D12098A6E
:10070700EF60F3EA30E702F404C3995077EAF4257F
:100717006D0430E701E404F56D800D1208E360C154
:10072700EA056D256D120329EA786AF630E701E4D8
:10073700256D04D56D0420050114120900E4C0E0FD
:1007470012098A786AE6601320E70714F612058A09
:10075700802204F6D0E014C0E07F0012058AE56D20
:100767006007120581156D800B300503120581D0D6
:10077700E00205DBD0E00480C51208E360A0E56D68
:1007870004120329786AEAF6E56D20050260010480
:0507970024041209001A
:10079C0074FF04C0E012098A12058AE56D20050277
:1007AC006003120581D0E0B56DE87F4512059478A1
:1007BC006AE67F2B30E7047F2DF404C0E01205A21B
:1007CC00D0E075F00A84C0F012058BD0E012058BD6
:1007DC000205DB791080027908C206C2088008D2B3
:1007EC00D5790A8004790AC2D5E56D047002F56DDD
:1007FC00E4FAFDFEFF120567FC7B082001131205CD
:10080C0067FD7B1030000A120567FE120567FF7B3F
:10081C0020EC3382D592D55013C3E43000069FFFF1
:10082C00E49EFEE42001039DFDE49CFCE4CBF8C2B5
:10083C0001EC700CCFCECDCCE824F8F870F3801717
:10084C00C3EF33FFEE33FEED33FDEC33FCEB33FB48
:10085C00994002FB0FD8E9EB300105F8D0E0C44811
:10086C00B201C0E00AEC4D4E4F78207B0070C2EA1A
:10087C00B56D0040BCC0E0120902D0F0D0E0200100
:10088C0004C4C0E0C4B201C0F012058BD0F0D5F0A6
:10089C00EB0205DB12054106785307DF5806494C7D
:1008AC0006454207E34F07EB4407EB49065E430757
:1008BC00F15507224607804506EC4709B750064D0F
:1008CC002D06512E06742B06552306722009A02ADC
:1008DC00060D480000066CE56DB4FF03756D06123D
:1008EC000567FC120567FD120567FE120567FF78A8
:1008FC0063020358790AA2D5200314300509B910F4
:10090C00020404B9080104A2D520060250010420F7
:10091C0002689202B56C005034C0E07F203003199D
:10092C007F30A20272067205500F120959C202C220
:10093C0006C205C2087F30800F300503E9C0E01203
:10094C0005A2300503D0E0F9D0E0B56CCC3005172A
:10095C007F30B9100C1205A27F583004077F7880C5
:10096C0003B908031205A23002057F2D0205A27FF0
:10097C00202008F87F2B2006F322920280CF7F00E4
:10098C00B4070050052463F8E6FF22286E756C6CE2
:10099C002900D2011205673001F8C201786C30D5FC
:1009AC000108F602060D2D50434958120567240321
:1009BC00B405004001E49009B293120593743A1205
:0A09CC000593D203756C040207DFE7
:1002DF00E9D2E7C933E833F892D5EDD2E7CD33EC65
:0702EF0033FC5002B2D522DE
:1002F600EC30E7100FBF000C0EBE00080DBD000469
:100306000BEB6014A2D5EB13FCED92E7FD2274FF14
:10031600FCFDFEFF22E480F8A2D574FF13FC7D806D
:03032600E480EF81
:10032900F920E72824F950037907E4F42402FB189B
:10033900DBFDE624FB5014E9600DE4F618E604F64B
:0F034900B40A08E4F6D9F57401F60A22C2D522E7
:10035800ED33EC3392D5FA602AB4FF33EDC2E77B74
:10036800FF60067A03797DE4227A03798620D50432
:100378007A037981224E614E002B494E46002D4961
:100388004E4600E47A08F608DAFC7B00740722E897
:10039800C0E0ECC0E0EDC0E0EEC0E0EFC0E0EA7520
:1003A800F010A4CAABF075F04DA42BFBE435F0FCBB
:1003B800EA2410FAEB34C5FBEC34D9FCEDC2E7FFB4
:1003C80075F056A4F42411C5F0F434C58FF0A42AAE
:1003D800E5F03BE43CF620E71412048BD0E0FFD0B4
:1003E800E0FED0E0FDD0E0FC1202048014F4041218
:1003F800048BD0E0FFD0E0FED0E0FDD0E0FC12009E
:10040800FBD0E0F8E6FAEDD2E7CD33EC332482FBFB
:10041800E4C3CF33CFCE33CECD33CD33DBF37B073D
:1004280075F00A846004F6081B0AE5F0F6088FF0F8
:10043800740AA4FFACF08EF0740AA42CFEACF05041
:10044800010C8DF0740AA42CFDE435F0F608DBDE0F
:0304580074072204
:10045B003F8000004120000042C80000447A0000A9
:10046B00461C400047C35000497424004B1896802B
:10047B004CBEBC205A0E1BCA6753C21C749DC5AE22
:10048B00FB60065407601C23231204B9EB5438603D
:10049B00091204A51204B41200FBECF8EDF9EEFA04
:1004AB00EFCB22EB1204B480F1543803241C9004DC
:1004BB005BFE93FC0EEE93FD0EEE930ECE93FF229E
:0300000002115D8D
:0C115D00787FE4F6D8FD75816F0211A4C4
:1004CB00BB010689828A83E0225002E722BBFE022F
:0904DB00E32289828A83E4932262
:1004E400BB010CE58229F582E5833AF583E02250CD
:1004F40006E92582F8E622BBFE06E92582F8E22217
:0D050400E58229F582E5833AF583E4932230
:10051100BB010689828A83F0225002F722BBFE01C9
:02052100F322C3
:0E052300C3E49FFFE49EFEE49DFDE49CFC22E9
:10053100FAE6FB0808E6F925F0F618E6CA3AF622CB
:10054100D083D082F8E4937012740193700DA3A349
:1005510093F8740193F5828883E47374029368605D
:06056100EFA3A3A380DF5D
:1013C200EFB40A07740D1213CD740A309811A8995C
:1013D200B8130CC2983098FDA899C298B811F6308B
:0713E20099FDC299F5992263
:1011690002123EE493A3F8E493A34003F68001F24C
:1011790008DFF48029E493A3F85407240CC8C33387
:10118900C4540F4420C8834004F456800146F6DF56
:10119900E4800B01020408102040809012CFE47E05
:1011A900019360BCA3FF543F30E509541FFEE4934B
:1011B900A360010ECF54C025E060A840B8E493A312
:1011C900FAE493A3F8E493A3C8C582C8CAC583CA3D
:1011D900F0A3C8C582C8CAC583CADFE9DEE780BEF5
:01130D0000DF
:00000001FF
