:030FAE00256600B5
:100E8A001249303132333435363738392B2D2A2F3F
:100E9A0028292E3D046100000000046500000000BE
:100EAA00046900000000045B000000000148000122
:050EBA006000015F0073
:100E4E00752FFF75300F7531AE8F358E348D338C17
:100E5E00327B007A0079241205C37FC0120F88E41A
:100E6E00F523C3E523940874809480500E742425D2
:0B0E7E0023F8E6FF120F92052380E727
:010E89002246
:0B0F7D00EF1FAC0670011E4C70F62246
:100F4B00EFFDC374809480400DD3ED9409748094AD
:090F5B008050037F01227F002277
:100C4C0075237FE4F52475900FAF90EF640F605916
:100C5C007FE87E03120F7DAF90EF640F604B7590B1
:100C6C000FAF90EF24F5601024FE60111460132474
:100C7C00077012E4F523800D75230180087523029B
:100C8C0080037523037590F0AF90EF2450600C2413
:100C9C00E0600C24F0600C2470800E7404800674E8
:100CAC00088002740C2523F523AF24EF3395E0FE66
:100CBC00C3EF9432EE648094805012AF90EF64F0E6
:0F0CCC00600B7F8C7E00120F7D052480DCAF2330
:010CDB0022F6
:100D680075B0FF7FE87E03120F7D20B00630B0FD1E
:100D78007F0A2220B10630B1FD7F0B2220B2063057
:100D8800B2FD7F0C2220B30630B3FD7F0D2220B4C4
:100D98000630B4FD7F0E2220B50630B5FD7F0F2248
:100DA80020B60630B6FD7F102220B70630B7FD7F8B
:050DB80011227F7F22E3
:100F2F007F7FEF647F7012120D68EF647F60012284
:0B0F3F00120C4CEF647F60EA227F7F01
:010F4A002284
:100AF700120F2F8F22EF6411701474492FF8E6FF3D
:100B0700120F92AF64AE63AD62AC61020E4EAF22BC
:100B1700120F4BEF64017034FFFE7D207C41AB6404
:100B2700AA63A962A8611200FBC004C005C006C081
:100B370007AC22E412020BD003D002D001D000127E
:100B4700000A8F648E638D628C618057E522FB7A81
:100B570000640A700DF568F567F566F5657560015F
:100B67008010EB640B4A700FF568F567F566F5655D
:100B7700F560754801802CE522FB7A00640C701043
:100B8700F56CF56BF56AF569754805755F018013B6
:100B9700EB640D4A700DF56CF56BF56AF5697548F0
:0D0BA70005F55F74492522F8E6FF120F9254
:010BB400221E
:100EC000120F2F8F22120F4BEF6401701AAC2212F7
:100ED000020B8F688E678D668C6575480274492594
:070EE00022F8E6FF120F9259
:010EE70022E8
:1009D600120F2F8F22120F4BEF64017035FFFE7D31
:1009E600207C41AB68AA67A966A8651200FBC00413
:1009F600C005C006C007AC22E412020BD003D00229
:100A0600D001D00012000A8F688E678D668C650251
:100A16000AA9E522640C7010F56CF56BF56AF569A8
:100A2600754803755F01807BE522640D700FF56CD8
:100A3600F56BF56AF569754803F55F8066E522642E
:100A46000A702EE5606401AF64AE63AD62AC61AB63
:100A560068AA67A966A865700512000A80031200D5
:100A6600068F648E638D628C6175480175600180A6
:100A760032E522640B7036E5606401AF64AE63ADA7
:100A860062AC61AB68AA67A966A865700512000A20
:100A960080031200068F648E638D628C6175480137
:100AA600E4F56074492522F8E6FF020F92E5226418
:100AB60011703DF548E5606401AF64AE63AD62ACAC
:100AC60061AB68AA67A966A865700512000A80036B
:100AD6001200068F648E638D628C6174492522F83C
:100AE600E6FF120F92AF64AE63AD62AC61120E4EBA
:010AF60022DD
:100F0F00120F2FAE07120F4BEF64017012AF06AC2A
:0F0F1F000712020B8F6C8E6B8D6A8C69754804FC
:010F2E0022A0
:100BB500120F2F8F22120F4BEF64017033FFFE7D52
:100BC500207C41AB6CAA6BA96AA8691200FBC00422
:100BD500C005C006C007AC22E412020BD003D00248
:100BE500D001D00012000A8F6C8E6B8D6A8C692241
:100BF500E522640A7050E56064017036AB64AA634F
:100C0500A962A861C000C001C002C003AF6CAE6B91
:100C1500AD6AAC69AB68AA67A966A8651200FBD086
:100C250003D002D001D00012000A8F648E638D625A
:100C35008C61E4F568F567F566F565F56CF56BF5BA
:060C45006AF56975480123
:010C4B002286
:050F9C00120F2F8F224F
:010FA100222D
:050FA200120F2F8F2249
:010FA7002227
:050FA800120F2F8F2243
:010FAD002221
:100DBD00120F64E548B4080050F9900DCEF82828BC
:100DCD0073020DE6020DEB020DF0020DF5020DFAA8
:100DDD00020DFF020E04020E09120AF780D5120E43
:100DED00C080D01209D680CB120F0F80C6120BB562
:100DFD0080C1120F9C80BC120FA280B7120FA88069
:010E0D00B232
:100E0E00C2A58F807F017E00120E1FD2A77F057EA6
:010E1E0000D3
:100E1F00D3EF9400EE940040257DC7EDD39400747A
:100E2F0080948040127C01ECD394007480948040B5
:0E0E3F00031C80F31D80E4EF1F70D51E80D2CF
:010E4D002282
:0A0F8800C2A7C2A6120E0EC2A722D5
:0A0F9200C2A7D2A6120E0EC2A722BB
:100F64007F38120F887F0C120F887F06120F887F3C
:090F740001120F887F80020F8832
:10000300020274E86480F8E933E83360110460F0B5
:10001300ED33EC337009E8FCE9FDEAFEEBFF220463
:1000230060DED3EB9FEA9EE99DE8C2E78CF0C2F75E
:1000330095F0400CE8CCF8E9CDF9EACEFAEBCFFB2A
:1000430012023F85D0F05804700320D5B3E8047042
:10005300075002B2D502027E92D5EC0460F7E4CCDD
:10006300C0E0C398F8603B94186008400DD0E0FBF3
:10007300020256E4FBFAC9FC8028E830E406E4C92E
:10008300FBE4CAFCE830E305E4C9CACBFCE8540747
:100093006010F8C3E913F9EA13FAEB13FBEC13FC52
:1000A300D8F130F52FC3E49CFCEF9BFFEE9AFEEDF5
:1000B30099FDD0E0FBEF4E4D4C701222DB030202A0
:1000C3007BEC2CFCEF33FFEE33FEED33FDED30E73D
:1000D300EB020256EF2BFFEE3AFEED39FDD0E0FBCB
:1000E30050130BBB000302027EED13FDEE13FEEF74
:0800F30013FFEC13FC0202569E
:1000FB00EC4D6011E8497017ED33EC3304600DE4FF
:10010B00FCFFFEFD22E933E8330470F8020274129F
:10011B00023F58046009E4CC2481500628500902A0
:10012B00027E28400302027BC0E0EB4A7044B98098
:10013B0006D0E0FB02026AEF4E701CBD8008EBFF9D
:10014B00EAFEE9FD80EBE98DF0A4FEE5F00201E4A7
:10015B00E9CDF9EAFEEBFFEF89F0A4FCE5F0CE89DF
:10016B00F0A42EFFE435F0CD89F0A42DFEE435F09C
:10017B008067EF4E7005BD80D780C3EF8BF0A4ACCA
:10018B00F0EE8BF0A42CFCE435F0F8EF8AF0A42C05
:10019B00E5F038FCE433CB8DF0A42CFCE5F03BF818
:1001AB00EE8AF0A42CFCE5F038F8E433CF89F0A408
:1001BB002CFCE5F038CF3400CE89F0A42FFFE5F00E
:1001CB003EFEE433C98DF0A42EFEE5F039CD8AF066
:1001DB00A42FFFE5F03EFEE43DFD33D0E0FB5007DE
:1001EB000BBB000F02027EEC2CFCEF33FFEE33FE59
:0601FB00ED33FD02025687
:1002010075F020800E75F010800575F0087D007E78
:10021100007F003392D530D503120523EC33401013
:10022100EF33FFEE33FEED33FDEC33FCD5F0ED2281
:0E023100E5F0247EA2D513CC92E7CDCEFF22BD
:10056700E543242FF8E6054322782C300702782F3D
:10057700E475F0011205310204CB2000EB7F2ED287
:10058700008018EF540F2490D43440D4FF30040B6C
:10059700EF24BFB41A0050032461FFE5446002153D
:1005A700440547E5477002054630070D782CE4758A
:1005B700F001120531EF020511020EE87403D207AC
:1005C7008003E4C207F5438B2C8A2D892EE4F5447A
:1005D700F546F547E54460077F201205A280F575CB
:1005E70045FFC201C200C202C203C205C206C20859
:1005F700120570FF700D3007057F001205B3AF4776
:10060700AE4622B4255FC2D5C204120570FF24D0BE
:10061700B40A00501A75F00A784430D50508B6FFB9
:100627000106C6A426F620D5047002D20380D92479
:10063700CFB41A00EF5004C2E5D2040208A0D201D9
:1006470080C6D20080C0D20280BCD2D580BAD20583
:1006570080B47F201205A22002077401B544004030
:10066700F1120567FF1205A20205DBD208D2068048
:1006770095120567FB120567FA120567F94A4B7071
:100687000679977A097BFF20022EE544602A7E00CF
:100697008E827583001204E460060EEE654570F0E5
:1006A700C2D5EBC0E0EAC0E0E9C0E0EE120900D035
:1006B700E0F9D0E0FAD0E0FB1204CBFF60AAEBC070
:1006C700E0EAC0E0E9C0E01205A2D0E02401F9D0D9
:1006D700E03400FAD0E0FBE5450460DCD545D9807D
:1006E70087D20280A21208E360F7E5457001041281
:1006F7000289A945600DE545600914F54512098A87
:10070700EF60F3EA30E702F404C3995077EAF4257F
:10071700450430E701E404F545800D1208E360C1A4
:10072700EA05452545120289EA7842F630E701E4F1
:10073700254504D5450420050114120900E4C0E04D
:1007470012098A7842E6601320E70714F612058A31
:10075700802204F6D0E014C0E07F0012058AE54548
:1007670060071205811545800B300503120581D0FE
:10077700E00205DBD0E00480C51208E360A0E54590
:10078700041202897842EAF6E54520050260010471
:0507970024041209001A
:10079C0074FF04C0E012098A12058AE5452005029F
:1007AC006003120581D0E0B545E87F4512059478C9
:1007BC0042E67F2B30E7047F2DF404C0E01205A243
:1007CC00D0E075F00A84C0F012058BD0E012058BD6
:1007DC000205DB791080027908C206C2088008D2B3
:1007EC00D5790A8004790AC2D5E545047002F5452D
:1007FC00E4FAFDFEFF120567FC7B082001131205CD
:10080C0067FD7B1030000A120567FE120567FF7B3F
:10081C0020EC3382D592D55013C3E43000069FFFF1
:10082C00E49EFEE42001039DFDE49CFCE4CBF8C2B5
:10083C0001EC700CCFCECDCCE824F8F870F3801717
:10084C00C3EF33FFEE33FEED33FDEC33FCEB33FB48
:10085C00994002FB0FD8E9EB300105F8D0E0C44811
:10086C00B201C0E00AEC4D4E4F78207B0070C2EA1A
:10087C00B5450040BCC0E0120902D0F0D0E0200128
:10088C0004C4C0E0C4B201C0F012058BD0F0D5F0A6
:10089C00EB0205DB12054106785307DF5806494C7D
:1008AC0006454207E34F07EB4407EB49065E430757
:1008BC00F15507224607804506EC4709B750064D0F
:1008CC002D06512E06742B06552306722009A02ADC
:1008DC00060D480000066CE545B4FF03754506128D
:1008EC000567FC120567FD120567FE120567FF78A8
:1008FC003B0202B8790AA2D5200314300509B910BD
:10090C00020404B9080104A2D520060250010420F7
:10091C0002689202B544005034C0E07F20300319C5
:10092C007F30A20272067205500F120959C202C220
:10093C0006C205C2087F30800F300503E9C0E01203
:10094C0005A2300503D0E0F9D0E0B544CC30051752
:10095C007F30B9100C1205A27F583004077F7880C5
:10096C0003B908031205A23002057F2D0205A27FF0
:10097C00202008F87F2B2006F322920280CF7F00E4
:10098C00B407005005243BF8E6FF22286E756C6C0A
:10099C002900D2011205673001F8C201784430D524
:1009AC000108F602060D2D50434958120567240321
:1009BC00B405004001E49009B293120593743A1205
:0A09CC000593D2037544040207DF0F
:10023F00E9D2E7C933E833F892D5EDD2E7CD33EC05
:07024F0033FC5002B2D5227E
:10025600EC30E7100FBF000C0EBE00080DBD000409
:100266000BEB6014A2D5EB13FCED92E7FD2274FFB5
:10027600FCFDFEFF22E480F8A2D574FF13FC7D800E
:03028600E480EF22
:10028900F920E72824F950037907E4F42402FB183C
:10029900DBFDE624FB5014E9600DE4F618E604F6EC
:0F02A900B40A08E4F6D9F57401F60A22C2D52288
:1002B800ED33EC3392D5FA602AB4FF33EDC2E77B15
:1002C800FF60067A0279DDE4227A0279E620D50415
:1002D8007A0279E1224E614E002B494E46002D49A3
:1002E8004E4600E47A08F608DAFC7B00740722E838
:1002F800C0E0ECC0E0EDC0E0EEC0E0EFC0E0EA75C1
:10030800F010A4CAABF075F04DA42BFBE435F0FC5B
:10031800EA2410FAEB34C5FBEC34D9FCEDC2E7FF54
:1003280075F056A4F42411C5F0F434C58FF0A42A4E
:10033800E5F03BE43CF620E71412048BD0E0FFD054
:10034800E0FED0E0FDD0E0FC1203BE8014F40412FD
:10035800048BD0E0FFD0E0FED0E0FDD0E0FC12003E
:10036800FBD0E0F8E6FAEDD2E7CD33EC332482FB9C
:10037800E4C3CF33CFCE33CECD33CD33DBF37B07DE
:1003880075F00A846004F6081B0AE5F0F6088FF099
:10039800740AA4FFACF08EF0740AA42CFEACF050E2
:1003A800010C8DF0740AA42CFDE435F0F608DBDEB0
:0303B800740722A5
:1003BB0002027EEC5D046005E859047003020274CE
:1003CB0012023F580460F6EC4860F2EC7004FDFE3C
:1003DB00FF22C860DB2481C85009C3986002500615
:1003EB0002027B9850CAF582E9294B4A7005AB8211
:1003FB0002026A75F0007C1A7880C3EF9BEE9AEDCF
:10040B0099400DC3EF9BFFEE9AFEED99FDE842F08C
:10041B00DC23ACF0D0E0FFD0E0FED0E0FDAB8220DF
:10042B00E7101BEB60BAEC2CFCEF33FFEE33FEED69
:10043B0033FD020256E803F830E705C0F075F00013
:10044B00EF2FFFEE33FEED33FD40B830E7C280AA4D
:10045B003F8000004120000042C80000447A0000A9
:10046B00461C400047C35000497424004B1896802B
:10047B004CBEBC205A0E1BCA6753C21C749DC5AE22
:10048B00FB60065407601C23231204B9EB5438603D
:10049B00091204A51204B41200FBECF8EDF9EEFA04
:1004AB00EFCB22EB1204B480F1543803241C9004DC
:1004BB005BFE93FC0EEE93FD0EEE930ECE93FF229E
:03000000020CDC13
:0C0CDC00787FE4F6D8FD75816C020D23D2
:1004CB00BB010689828A83E0225002E722BBFE022F
:0904DB00E32289828A83E4932262
:1004E400BB010CE58229F582E5833AF583E02250CD
:1004F40006E92582F8E622BBFE06E92582F8E22217
:0D050400E58229F582E5833AF583E4932230
:10051100BB010689828A83F0225002F722BBFE01C9
:02052100F322C3
:0E052300C3E49FFFE49EFEE49DFDE49CFC22E9
:10053100FAE6FB0808E6F925F0F618E6CA3AF622CB
:10054100D083D082F8E4937012740193700DA3A349
:1005510093F8740193F5828883E47374029368605D
:06056100EFA3A3A380DF5D
:100EE800EFB40A07740D120EF3740A309811A8991A
:100EF800B8130CC2983098FDA899C298B811F6306A
:070F080099FDC299F5992241
:100CE800020DBDE493A3F8E493A34003F68001F258
:100CF80008DFF48029E493A3F85407240CC8C3330D
:100D0800C4540F4420C8834004F456800146F6DFDB
:100D1800E4800B0102040810204080900E8AE47ED3
:100D2800019360BCA3FF543F30E509541FFEE493D0
:100D3800A360010ECF54C025E060A840B8E493A397
:100D4800FAE493A3F8E493A3C8C582C8CAC583CAC2
:100D5800F0A3C8C582C8CAC583CADFE9DEE780BE7A
:010EBF000032
:00000001FF
