:03247500256600D9
:10226A00520006303132333435363738392B2D2A7D
:10227A002F28292E3D44002E000000004400320081
:10228A0000000044003600000000410018FF410031
:10229A003AFF41002B0041002C0041002D00410073
:0E22AA00000041001A0041001900410005002B
:1024260090002E1206A100000000E490002BF0227E
:102436009000321206A100000000E490002CF02269
:102446009000361206A100000000E490002DF02254
:101E1800900000E0FF14602724FE603424FE700365
:101E2800021EB524056003021EFE900018E004F0AF
:101E3800E02401F582E43400F583EFF0021EFE9001
:101E4800001AE064017075900000E02480F0806C56
:101E580090001AE064017007900000E02480F09080
:101E68000019E064017007900000E02440F0900041
:101E780000E0FF900018E004F02401F582E434004B
:101E8800F583EFF090002EE0FCA3E0FDA3E0FEA3B5
:101E9800E0FF90003AE004F025E025E0241BF582FD
:101EA800E43400F5831206959000328028900019DA
:101EB800E064017007900000E02440F0900000E02A
:101EC800FF900018E004F02401F582E43400F58363
:101ED800EFF090002EE0FCA3E0FDA3E0FEA3E0FFFE
:101EE80090003AE004F025E025E0241BF582E43474
:091EF80000F58312069502242670
:101BA600900018E0FF14F074012FF582E43400F57C
:101BB60083E0FF543F14601D24FE605C24FE700326
:101BC600021C9B24056003021CEEE4900000F090CA
:101BD600002E021CDD9000007402F0EF5480648039
:101BE600700790001A04F08005E490001AF0900047
:101BF6002EE0FCA3E0FDA3E0FEA3E0FFA312069502
:101C060090003AE0FF14F0EF25E025E0241BF58272
:101C1600E43400F583021CDD9000007404F0EF54F8
:101C2600806480700790001A04F08005E490001A22
:101C3600F0EF54406440700790001904F08005E40A
:101C4600900019F090002EE0FCA3E0FDA3E0FEA3B7
:101C5600E0FF90003612069590003AE0FF14F0EF90
:101C660025E025E0241BF582E43400F583E0FCA39F
:101C7600E0FDA3E0FEA3E0FF90003212069590007F
:101C86003AE0FF14F0EF25E025E0241BF582E4346A
:101C960000F58380429000007406F0EF54406440E3
:101CA600700790001904F08005E4900019F0900088
:101CB6002EE0FCA3E0FDA3E0FEA3E0FF90003612B9
:101CC600069590003AE0FF14F0EF25E025E0241B8E
:101CD600F582E43400F583E0FCA3E0FDA3E0FEA377
:081CE600E0FF90002E120695AC
:011CEE0022D3
:1022B90090004874FFF0A37424F0A37475F0A3127E
:1022C90006957B017A00793D120E337FC012246195
:1022D900E490003CF090003CE0FFC39408748094C3
:1022E900805017743D2FF582E43400F583E0FF1226
:0A22F900246B90003CE004F080DB51
:0123030022B7
:0B245600EF1FAC0670011E4C70F62258
:1023F400EFFDC374809480400DD3ED9409748094F0
:092404008050037F01227F0022B9
:101F010090003C747FF0E4A3F075900FAF90EF6404
:101F11000F60767FE87E03122456AF90EF640F6066
:101F21006875900FAF90EF24F5601224FE601614CF
:101F3100601B2407701DE490003CF0801690003C6B
:101F41007401F0800E90003C7402F0800690003C19
:101F51007403F07590F0AF90EF2450601324E060AB
:101F61001824F0601D2470702090003CE0F080196E
:101F710090003CE02404F0801090003CE02408F044
:101F8100800790003CE0240CF090003DE0FF339589
:101F9100E0FEC3EF9432EE648094805013AF90EF73
:101FA10064F0600C7FA07E00122456E004F080D91A
:0E1FB10090003CE0FE640F70037F1222AF062A
:011FBF0022FF
:1022150075B0FF7FE87E0312245620B00630B0FD6E
:102225007F0A2220B10630B1FD7F0B2220B2063095
:10223500B2FD7F0C2220B30630B3FD7F0D2220B402
:102245000630B4FD7F0E2220B50630B5FD7F0F2286
:1022550020B60630B6FD7F102220B70630B7FD7FC9
:0522650011227F7F2221
:1023D8007F7FEF647F7012122215EF647F60012205
:0B23E800121F01EF647F60EA227F7F7C
:0123F30022C7
:1023B6007F01122461122426122436122446E49048
:1023C6000005F0900000F090001874FFF090003ABD
:0223D600F022F3
:10188F001223D890003BEFF064117020E02406F58E
:10189F0082E43400F583E0FF12246B90002EE0FC0D
:1018AF00A3E0FDA3E0FEA3E0FF0222B990003BE01E
:1018BF00641270030223B690003BE0640F702C900B
:1018CF000005E0D39400748094805003021A3F12F5
:1018DF001BA690003BE02406F582E43400F583E07C
:1018EF00FF12246B900005E014F02290003BE0FF04
:1018FF006410701190002BE06003021A3F04F07423
:10190F00062F021A3390003BE0FF1223F4EF64011D
:10191F0060030219C890002BE0703CFFFE7D207C15
:10192F004190002EE0F8A3E0F9A3E0FAA3E0FB1248
:10193F0000FBC004C005C006C00790003BE0FCE4FC
:10194F001202ABD003D002D001D00012000A9000D7
:10195F002E120695021A2D90002EE0F8A3E0F9A39F
:10196F00E0FAA3E0FBC000C001C002C00390002B4F
:10197F00E0FCE41202AB9000401206957FCD7ECCC6
:10198F007DCC7C3D121A40C004C005C006C0079034
:10199F00003BE0FCE41202ABD003D002D001D00038
:1019AF001200FBD003D002D001D00012000A900029
:1019BF002E12069590002B801790003BE0F9FB7AD2
:1019CF0000640E7010121E18E4900000F0900005D5
:1019DF00E004F08049EB640A4A700B90001A04F09F
:1019EF00900000F08038E9FF7E00640B700B9000D0
:1019FF001AF090000004F08025EF640C4E700E90EA
:101A0F0000007405F09000197401F08011EF640D5F
:101A1F004E700B9000007405F0E4900019F09000E8
:101A2F003BE02406F582E43400F583E0FF12246BDB
:011A3F002284
:102157001223D890003BEFF012243690003BE0FFAB
:102167001223F4EF64017013E0FCE41202AB900059
:10217700321206959000007402801590003BE064CF
:102187000E7020121E18900005E004F0E490000085
:10219700F090003BE02406F582E43400F583E0FF8D
:0E21A70002246B90003BE0641270031223B61A
:0121B5002207
:1015CD001223D890003BEFF06411706E900000F084
:1015DD0090001AE0640190002E701CE0FCA3E0FD69
:1015ED00A3E0FEA3E0FFA3E0F8A3E0F9A3E0FAA3D4
:1015FD00E0FB12000A801AE0FCA3E0FDA3E0FEA3CD
:10160D00E0FFA3E0F8A3E0F9A3E0FAA3E0FB1200EA
:10161D000690002E12069590003BE02406F582E41C
:10162D003400F583E0FF12246B90002EE0FCA3E064
:10163D00FDA3E0FEA3E0FF0222B990003BE064129F
:10164D0070030223B690003BE0FF64107011900010
:10165D002CE0600302188E04F074062F021882909D
:10166D00003BE0640F7073900005E0D3940074802C
:10167D009480500302188E90001AE0640190002EA1
:10168D00701CE0FCA3E0FDA3E0FEA3E0FFA3E0F8E7
:10169D00A3E0F9A3E0FAA3E0FB12000A801AE0FC34
:1016AD00A3E0FDA3E0FEA3E0FFA3E0F8A3E0F9A310
:1016BD00E0FAA3E0FB12000690002E120695121B15
:1016CD00A690003BE02406F582E43400F583E0FFAC
:1016DD0012246B900005E014F02290003BE0FF1205
:1016ED0023F4EF6401600302179F90002CE0703C1F
:1016FD00FFFE7D207C41900032E0F8A3E0F9A3E0ED
:10170D00FAA3E0FB1200FBC004C005C006C00790A1
:10171D00003BE0FCE41202ABD003D002D001D000BC
:10172D0012000A90003212069502187C900032E0E9
:10173D00F8A3E0F9A3E0FAA3E0FBC000C001C002EA
:10174D00C00390002CE0FCE41202AB9000401206A6
:10175D00957FCD7ECC7DCC7C3D121A40C004C0055A
:10176D00C006C00790003BE0FCE41202ABD003D0F2
:10177D0002D001D0001200FBD003D002D001D00066
:10178D0012000A90003212069590002CE004F0022F
:10179D00187C90003BE0FF7E00640C700F90000001
:1017AD007403F09000197401F002187CEF640D4E73
:1017BD00700E9000007403F0E4900019F002187C94
:1017CD00EF640A4E704F90001AE0640190002E7085
:1017DD001CE0FCA3E0FDA3E0FEA3E0FFA3E0F8A363
:1017ED00E0F9A3E0FAA3E0FB12000A801AE0FCA3E3
:1017FD00E0FDA3E0FEA3E0FFA3E0F8A3E0F9A3E082
:10180D00FAA3E0FB12000690002E12069590000040
:10181D007401F0805690003BE0640B705290001AFA
:10182D00E0640190002E701CE0FCA3E0FDA3E0FE3F
:10183D00A3E0FFA3E0F8A3E0F9A3E0FAA3E0FB1215
:10184D00000A801AE0FCA3E0FDA3E0FEA3E0FFA3E5
:10185D00E0F8A3E0F9A3E0FAA3E0FB120006900084
:10186D002E1206959000007401F0E490001AF0908D
:10187D00003BE02406F582E43400F583E0FF1224FA
:01188D006BEF
:01188E002237
:1021B6001223D890003BEFF012244690003BE0FF3C
:1021C6001223F4EF64017013E0FCE41202AB9000FA
:1021D600361206959000007404801590003BE0646A
:1021E6000E7020121E18E4900000F0900005E00426
:1021F600F090003BE02406F582E43400F583E0FF2E
:0E22060002246B90003BE0641270031223B6BA
:0122140022A7
:100718001223D890003BEFF01223F4EF640160033A
:100728000207D390002DE0703CFFFE7D207C4190B5
:100738000036E0F8A3E0F9A3E0FAA3E0FB1200FB1F
:10074800C004C005C006C00790003BE0FCE41202EC
:10075800ABD003D002D001D00012000A90003612AC
:100768000695020D7C900036E0F8A3E0F9A3E0FAC4
:10077800A3E0FBC000C001C002C00390002DE0FC54
:10078800E41202AB9000401206957FCD7ECC7DCC62
:100798007C3D121A40C004C005C006C00790003B4B
:1007A800E0FCE41202ABD003D002D001D00012006A
:1007B800FBD003D002D001D00012000A90003612FC
:1007C800069590002DE004F0020D7C90003BE0FFC0
:1007D8006410701D90002DE06003020D7C04F0741D
:1007E800062FF582E43400F583E0FF12246B020D36
:1007F8007C90003BE0640F6003020946900005E02E
:10080800D39400748094805003020D7C90001AE009
:100818006401600302089E900019E0640190002EB4
:100828007034E0F8A3E0F9A3E0FAA3E0FBC000C04D
:1008380001C002C003900036E0FCA3E0FDA3E0FE87
:10084800A3E0FF900032E0F8A3E0F9A3E0FAA3E008
:10085800FB1200FB8032E0F8A3E0F9A3E0FAA3E082
:10086800FBC000C001C002C003900036E0F8A3E05E
:10087800F9A3E0FAA3E0FB900032E0FCA3E0FDA3BB
:10088800E0FEA3E0FF120204D003D002D001D000A2
:1008980012000A020922900019E0640190002E70EB
:1008A80034E0FCA3E0FDA3E0FEA3E0FFC004C00524
:1008B800C006C007900036E0FCA3E0FDA3E0FEA35D
:1008C800E0FF900032E0F8A3E0F9A3E0FAA3E0FB30
:1008D8001200FB8032E0FCA3E0FDA3E0FEA3E0FFF2
:1008E800C004C005C006C007900036E0F8A3E0F9D0
:1008F800A3E0FAA3E0FB900032E0FCA3E0FDA3E054
:10090800FEA3E0FF120204A804A905AA06AB07D0BB
:1009180007D006D005D00412000690002E120695C6
:10092800121BA690003BE02406F582E43400F58310
:10093800E0FF12246B900005E014F0020D7C90009B
:100948003BE0640A6003020A6D90001AE0640160EB
:10095800030209DB900019E0640190002E7034E076
:10096800F8A3E0F9A3E0FAA3E0FBC000C001C002CD
:10097800C003900036E0FCA3E0FDA3E0FEA3E0FF87
:10098800900032E0F8A3E0F9A3E0FAA3E0FB12003C
:10099800FB8032E0F8A3E0F9A3E0FAA3E0FBC00093
:1009A800C001C002C003900036E0F8A3E0F9A3E05C
:1009B800FAA3E0FB900032E0FCA3E0FDA3E0FEA375
:1009C800E0FF120204D003D002D001D00012000AC6
:1009D800020A5F900019E0640190002E7034E0FC78
:1009E800A3E0FDA3E0FEA3E0FFC004C005C006C06D
:1009F80007900036E0FCA3E0FDA3E0FEA3E0FF9033
:100A08000032E0F8A3E0F9A3E0FAA3E0FB1200FB50
:100A18008032E0FCA3E0FDA3E0FEA3E0FFC004C039
:100A280005C006C007900036E0F8A3E0F9A3E0FA95
:100A3800A3E0FB900032E0FCA3E0FDA3E0FEA3E00E
:100A4800FF120204A804A905AA06AB07D007D0061E
:100A5800D005D00412000690002E12069590001AB8
:100A68007401020D7790003BE0640B6003020B9960
:100A780090001AE064016003020B02900019E06420
:100A88000190002E7034E0F8A3E0F9A3E0FAA3E0A7
:100A9800FBC000C001C002C003900036E0FCA3E028
:100AA800FDA3E0FEA3E0FF900032E0F8A3E0F9A385
:100AB800E0FAA3E0FB1200FB8032E0F8A3E0F9A320
:100AC800E0FAA3E0FBC000C001C002C003900036FA
:100AD800E0F8A3E0F9A3E0FAA3E0FB900032E0FC21
:100AE800A3E0FDA3E0FEA3E0FF120204D003D002BE
:100AF800D001D00012000A020B86900019E06401B0
:100B080090002E7034E0FCA3E0FDA3E0FEA3E0FF1C
:100B1800C004C005C006C007900036E0FCA3E0FD95
:100B2800A3E0FEA3E0FF900032E0F8A3E0F9A3E021
:100B3800FAA3E0FB1200FB8032E0FCA3E0FDA3E097
:100B4800FEA3E0FFC004C005C006C007900036E061
:100B5800F8A3E0F9A3E0FAA3E0FB900032E0FCA3DD
:100B6800E0FDA3E0FEA3E0FF120204A804A905AA81
:100B780006AB07D007D006D005D0041200069000B7
:100B88002E120695E490001AF090000004F0020D71
:100B98007C90003BE0640C7056900019E064019072
:100BA8000032701CE0FCA3E0FDA3E0FEA3E0FFA37D
:100BB800E0F8A3E0F9A3E0FAA3E0FB1200FB801A37
:100BC800E0FCA3E0FDA3E0FEA3E0FFA3E0F8A3E0C0
:100BD800F9A3E0FAA3E0FB12020490003212069592
:100BE8009000007403F09000197401F0020D7C90DD
:100BF800003BE0640D7055900019E06401900032EC
:100C0800701CE0FCA3E0FDA3E0FEA3E0FFA3E0F876
:100C1800A3E0F9A3E0FAA3E0FB1200FB801AE0FCD2
:100C2800A3E0FDA3E0FEA3E0FFA3E0F8A3E0F9A39F
:100C3800E0FAA3E0FB12020490003212069590003D
:100C4800007403F0E4900019F0020D7C90003BE082
:100C580064116003020D7C90001AE06401600302D5
:100C68000CE9900019E0640190002E7034E0F8A3BC
:100C7800E0F9A3E0FAA3E0FBC000C001C002C00392
:100C8800900036E0FCA3E0FDA3E0FEA3E0FF9000A7
:100C980032E0F8A3E0F9A3E0FAA3E0FB1200FB803E
:100CA80032E0F8A3E0F9A3E0FAA3E0FBC000C0013A
:100CB800C002C003900036E0F8A3E0F9A3E0FAA36D
:100CC800E0FB900032E0FCA3E0FDA3E0FEA3E0FF20
:100CD800120204D003D002D001D00012000A020D83
:100CE8006D900019E0640190002E7034E0FCA3E0E0
:100CF800FDA3E0FEA3E0FFC004C005C006C0079046
:100D08000036E0FCA3E0FDA3E0FEA3E0FF90003284
:100D1800E0F8A3E0F9A3E0FAA3E0FB1200FB8032BD
:100D2800E0FCA3E0FDA3E0FEA3E0FFC004C005C013
:100D380006C007900036E0F8A3E0F9A3E0FAA3E0C4
:100D4800FB900032E0FCA3E0FDA3E0FEA3E0FF126D
:100D58000204A804A905AA06AB07D007D006D00547
:100D6800D00412000690002E120695E490001AF0A6
:100D7800900000F090003BE0641270030223B690EC
:100D8800003BE0FF6411702074062FF582E4340004
:100D9800F583E0FF12246B90002EE0FCA3E0FDA396
:100DA800E0FEA3E0FF0222B990003BE0FF640F6081
:100DB80014EF6410600FE02406F582E43400F58334
:050DC800E0FF12246BA6
:010DCD002203
:1020E6001223D890003BEFF012244690003BE0FF0D
:1020F6001223F4EF64017024E0FCE41202AB9000BA
:10210600361206959000007406F090003BE0240617
:10211600F582E43400F583E0FF02246B90003BE097
:10212600640E7021121E18E4900000F090003BE04F
:102136002406F582E43400F583E0FF12246B900058
:1021460005E004F02290003BE0641270031223B60F
:012156002266
:101251001223D890003BEFF01223F4EF64016003F6
:1012610002130990002DE07039FFFE7D207C419032
:101271000036E0F8A3E0F9A3E0FAA3E0FB1200FBDB
:10128100C004C005C006C00790003BE0FCE41202A8
:10129100ABD003D002D001D00012000A9000360278
:1012A10014FB900036E0F8A3E0F9A3E0FAA3E0FB19
:1012B100C000C001C002C00390002DE0FCE4120296
:1012C100AB9000401206957FCD7ECC7DCC7C3D124B
:1012D1001A40C004C005C006C00790003BE0FCE412
:1012E1001202ABD003D002D001D0001200FBD00318
:1012F100D002D001D00012000A900036120695905B
:10130100002DE004F002157B90003BE0FF641070BB
:101311001D90002DE0600302157B04F074062FF58B
:1013210082E43400F583E0FF12246B02157B900008
:101331003BE0640A7053900019E0640190002E7044
:101341001EE0FCA3E0FDA3E0FEA3E0FF900036E079
:10135100F8A3E0F9A3E0FAA3E0FB1200FB801CE094
:10136100FCA3E0FDA3E0FEA3E0FF900036E0F8A3BC
:10137100E0F9A3E0FAA3E0FB12020490002E1206AA
:10138100959000007401F0805A90003BE0640B706E
:1013910059900019E0640190002E701EE0FCA3E05A
:1013A100FDA3E0FEA3E0FF900036E0F8A3E0F9A37F
:1013B100E0FAA3E0FB1200FB801CE0FCA3E0FDA32C
:1013C100E0FEA3E0FF900036E0F8A3E0F9A3E0FA25
:1013D100A3E0FB12020490002E1206959000007407
:1013E10001F0E490001AF002157B90003BE0640CE0
:1013F1007053900019E0640190002E701EE0FCA370
:10140100E0FDA3E0FEA3E0FF900036E0F8A3E0F9E1
:10141100A3E0FAA3E0FB1200FB801CE0FCA3E0FDCB
:10142100A3E0FEA3E0FF900036E0F8A3E0F9A3E01B
:10143100FAA3E0FB12020490002E12069590001907
:101441007401F0805890003BE0640D7059900019D0
:10145100E0640190002E701EE0FCA3E0FDA3E0FE1D
:10146100A3E0FF900036E0F8A3E0F9A3E0FAA3E0DF
:10147100FB1200FB801CE0FCA3E0FDA3E0FEA3E067
:10148100FF900036E0F8A3E0F9A3E0FAA3E0FB1235
:10149100020490002E120695E4900019F0900000CD
:1014A1007405F002157B90003BE0641170519000CF
:1014B10000F0900019E0640190002E701EE0FCA382
:1014C100E0FDA3E0FEA3E0FF900036E0F8A3E0F921
:1014D100A3E0FAA3E0FB1200FB801CE0FCA3E0FD0B
:1014E100A3E0FEA3E0FF900036E0F8A3E0F9A3E05B
:1014F100FAA3E0FB12020490002E120695807B9065
:10150100003BE0640F7073900005E0D39400748099
:1015110094804066900019E0640190002E701EE0F6
:10152100FCA3E0FDA3E0FEA3E0FF900036E0F8A3FA
:10153100E0F9A3E0FAA3E0FB1200FB801CE0FCA3AE
:10154100E0FDA3E0FEA3E0FF900036E0F8A3E0F9A0
:10155100A3E0FAA3E0FB12020490002E12069512FA
:101561001BA690003BE02406F582E43400F583E0FD
:10157100FF12246B900005E014F090003BE0641230
:1015810070030223B690003BE0FF641170207406E3
:101591002FF582E43400F583E0FF12246B90002ED6
:1015A100E0FCA3E0FDA3E0FEA3E0FF0222B990006E
:1015B1003BE0FF640F6014EF6410600FE02406F558
:0B15C10082E43400F583E0FF12246B8D
:0115CC0022FC
:1023040012240D900000E0B4070050F7902317F852
:1023140028287302232C02233102233602233B0292
:10232400234002234502234A12188F80D6122157D4
:1023340080D11215CD80CC1221B680C71207188027
:0B234400C21220E680BD12125180B8CA
:10234F00C2A58F807F017E00122360D2A77F057EFA
:01235F00007D
:10236000D3EF9400EE940040257DC7EDD394007424
:1023700080948040127C01ECD3940074809480405F
:0E238000031C80F31D80E4EF1F70D51E80D279
:01238E00222C
:0A246100C2A7C2A612234FC2A72291
:0A246B00C2A7D2A612234FC2A72277
:10240D007F381224617F0C1224617F061224617FB4
:09241D00011224617F8002246198
:10000300020314E86480F8E933E83360110460F014
:10001300ED33EC337009E8FCE9FDEAFEEBFF220463
:1000230060DED3EB9FEA9EE99DE8C2E78CF0C2F75E
:1000330095F0400CE8CCF8E9CDF9EACEFAEBCFFB2A
:100043001202DF85D0F05804700320D5B3E80470A2
:10005300075002B2D502031E92D5EC0460F7E4CC3C
:10006300C0E0C398F8603B94186008400DD0E0FBF3
:100073000202F6E4FBFAC9FC8028E830E406E4C98E
:10008300FBE4CAFCE830E305E4C9CACBFCE8540747
:100093006010F8C3E913F9EA13FAEB13FBEC13FC52
:1000A300D8F130F52FC3E49CFCEF9BFFEE9AFEEDF5
:1000B30099FDD0E0FBEF4E4D4C701222DB0302039F
:1000C3001BEC2CFCEF33FFEE33FEED33FDED30E79D
:1000D300EB0202F6EF2BFFEE3AFEED39FDD0E0FB2B
:1000E30050130BBB000302031EED13FDEE13FEEFD3
:0800F30013FFEC13FC0202F6FE
:1000FB00EC4D6011E8497017ED33EC3304600DE4FF
:10010B00FCFFFEFD22E933E8330470F802031412FE
:10011B0002DF58046009E4CC248150062850090200
:10012B00031E28400302031BC0E0EB4A7044B98056
:10013B0006D0E0FB02030AEF4E701CBD8008EBFFFC
:10014B00EAFEE9FD80EBE98DF0A4FEE5F00201E4A7
:10015B00E9CDF9EAFEEBFFEF89F0A4FCE5F0CE89DF
:10016B00F0A42EFFE435F0CD89F0A42DFEE435F09C
:10017B008067EF4E7005BD80D780C3EF8BF0A4ACCA
:10018B00F0EE8BF0A42CFCE435F0F8EF8AF0A42C05
:10019B00E5F038FCE433CB8DF0A42CFCE5F03BF818
:1001AB00EE8AF0A42CFCE5F038F8E433CF89F0A408
:1001BB002CFCE5F038CF3400CE89F0A42FFFE5F00E
:1001CB003EFEE433C98DF0A42EFEE5F039CD8AF066
:1001DB00A42FFFE5F03EFEE43DFD33D0E0FB5007DE
:1001EB000BBB000F02031EEC2CFCEF33FFEE33FEB8
:0601FB00ED33FD0202F6E7
:1002010002031EEC5D046005E85904700302031447
:100211001202DF580460F6EC4860F2EC7004FDFE57
:10022100FF22C860DB2481C85009C39860025006D0
:1002310002031B9850CAF582E9294B4A7005AB822B
:1002410002030A75F0007C1A7880C3EF9BEE9AEDE9
:1002510099400DC3EF9BFFEE9AFEED99FDE842F048
:10026100DC23ACF0D0E0FFD0E0FED0E0FDAB82209B
:10027100E7101BEB60BAEC2CFCEF33FFEE33FEED25
:1002810033FD0202F6E803F830E705C0F075F0002F
:10029100EF2FFFEE33FEED33FD40B830E7C280AA09
:1002A10075F020800E75F010800575F0087D007ED8
:1002B100007F003392D530D50312065BEC3340103A
:1002C100EF33FFEE33FEED33FDEC33FCD5F0ED22E1
:0E02D100E5F0247EA2D513CC92E7CDCEFF221D
:100DCE00E5082448F582E43400F583E00508229016
:100DDE000045300703900048E475F0011206D20278
:100DEE0006032000E97F2ED2008018EF540F2490C6
:100DFE00D43440D4FF30040BEF24BFB41A00500398
:100E0E002461FFE50960021509050CE50C70020569
:100E1E000B30070E900045E475F0011206D2EF027A
:100E2E00064902238F7403D2078003E4C207F50834
:100E3E009000451206E9E4F509F50BF50CE509609D
:100E4E00077F20120E1180F5750AFFC201C200C283
:100E5E0002C203C205C206C208120DDDFF700D30BC
:100E6E0007057F00120E22AF0CAE0B22B4255FC217
:100E7E00D5C204120DDDFF24D0B40A00501A75F04D
:100E8E000A780930D50508B6FF0106C6A426F62055
:100E9E00D5047002D20380D924CFB41A00EF5004C7
:100EAE00C2E5D204021114D20180C6D20080C0D293
:100EBE000280BCD2D580BAD20580B47F20120E112A
:100ECE002002077401B5090040F1120DCEFF120E7B
:100EDE0011020E4BD208D2068095120DCEFB120DCA
:100EEE00CEFA120DCEF94A4B700679127A127BFFAA
:100EFE0020022EE509602A7E008E8275830012067E
:100F0E001C60060EEE650A70F0C2D5EBC0E0EAC0BA
:100F1E00E0E9C0E0EE121175D0E0F9D0E0FAD0E0D1
:100F2E00FB120603FF60AAEBC0E0EAC0E0E9C0E0F6
:100F3E00120E11D0E02401F9D0E03400FAD0E0FB1B
:100F4E00E50A0460DCD50AD98087D20280A212118C
:100F5E005760F7E50A700104120404A90A600DE552
:100F6E000A600914F50A1211FFEF60F3EA30E70286
:100F7E00F404C3995079EAF4250A0430E701E40435
:100F8E00F50A800D12115760C1EA050A250A1204EE
:100F9E0004EA900074F030E701E4250A04D50A044F
:100FAE0020050114121175E4C0E01211FF900074B7
:100FBE00E0601320E70714F0120DF9802204F0D040
:100FCE00E014C0E07F00120DF9E50A6007120DF083
:100FDE00150A800B300503120DF0D0E0020E4BD037
:100FEE00E00480C4121157609EE50A0412040490B6
:100FFE000074EAF0E50A20050260010424041211CF
:01100E00756C
:10100F0074FF04C0E01211FF120DF9E50A2005026A
:10101F006003120DF0D0E0B50AE87F45120E039081
:10102F000074E07F2B30E7047F2DF404C0E0120E34
:10103F0011D0E075F00A84C0F0120DFAD0E0120D55
:10104F00FA020E4B791080027908C206C208800896
:10105F00D2D5790A8004790AC2D5E50A047002F55F
:10106F000AE4FAFDFEFF120DCEFC7B0820011312DD
:10107F000DCEFD7B1030000A120DCEFE120DCEFFED
:10108F007B20EC3382D592D55013C3E43000069FFA
:10109F00FFE49EFEE42001039DFDE49CFCE4CBF8FD
:1010AF00C201EC700CCFCECDCCE824F8F870F380F1
:1010BF0017C3EF33FFEE33FEED33FDEC33FCEB33B1
:1010CF00FB994002FB0FD8E9EB300105F8D0E0C4E3
:1010DF0048B201C0E00AEC4D4E4F78207B0070C241
:1010EF00EAB50A0040BCC0E0121177D0F0D0E02082
:1010FF000104C4C0E0C4B201C0F0120DFAD0F0D5A3
:10110F00F0EB020E4B1206F20EE8531053580EB9C5
:10111F004C0EB54210574F105F44105F490ECE432F
:10112F001065550F92460FF2450F5C471232500E65
:10113F00BD2D0EC12E0EE42B0EC5230EE220121B69
:10114F002A0E7D4800000EDCE50AB4FF03750A067F
:10115F00120DCEFC120DCEFD120DCEFE120DCEFFD6
:10116F0090006D020441790AA2D5200314300509BD
:10117F00B910020404B9080104A2D52006025001D7
:10118F00042002689202B509005034C0E07F20307D
:10119F0003197F30A20272067205500F1211CEC2D0
:1011AF0002C206C205C2087F30800F300503E9C0B6
:1011BF00E0120E11300503D0E0F9D0E0B509CC30C4
:1011CF0005177F30B9100C120E117F583004077FAE
:1011DF00788003B90803120E113002057F2D020E1D
:1011EF00117F202008F87F2B2006F322920280CF58
:1011FF007F00B40700500B246DF582E43400F583B3
:10120F00E0FF22286E756C6C2900D201120DCE30D2
:10121F0001F8C201780930D50108F6020E7D2D5074
:10122F00434958120DCE2403B405004001E4901237
:10123F002D93120E02743A120E02D2037509040294
:02124F0010533A
:101A400090003C120695E4FFFE7D807C3F90003CB8
:101A5000E0F8A3E0F9A3E0FAA3E0FB120343700669
:101A600090003C021B9A90003CE0FCA3E0FDA3E048
:101A7000FEA3E0FF120329FBA3E0FCA3E0FDA3E02B
:101A8000FEA3E0FF120329FFB40108E4FFFE7D80FE
:101A90007C3F22EF64046029EB64046024EBB40112
:101AA00030E4FFFEFDFC900040E0F8A3E0F9A3E085
:101AB000FAA3E0FB12034360084006E4FFFEFDFCCE
:101AC000229000401206A1FFFFFFFF900040021B82
:101AD0009AE4900044F0A3F0FFFEFDFC90003CE08F
:101AE000F8A3E0F9A3E0FAA3E0FB120343505F90F0
:101AF0000040E0FCA3E0FDA3E0FEA3E0FF1203CD65
:101B0000900044EEF0A3EFF0FDCCEECCEC1202A678
:101B1000C8ECC8C9EDC9CAEECACBEFCB900040E013
:101B2000FCA3E0FDA3E0FEA3E0FF120006E4FBFA45
:101B3000F9F8120343708A90003CE0FCA3E0FDA397
:101B4000E0FEA3E0FF1203BC90003C12069590005B
:101B50003CE0FCA3E0FDA3E0FEA3E0FF121D239008
:101B60000040E0F8A3E0F9A3E0FAA3E0FB1200FBD9
:101B7000121FF8900040120695900045E030E017E3
:101B8000900040E0FCA3E0FDA3E0FEA3E0FF120311
:101B9000BC900040120695900040E0FCA3E0FDA33D
:061BA000E0FEA3E0FF22BD
:1002DF00E9D2E7C933E833F892D5EDD2E7CD33EC65
:0702EF0033FC5002B2D522DE
:1002F600EC30E7100FBF000C0EBE00080DBD000469
:100306000BEB6014A2D5EB13FCED92E7FD2274FF14
:10031600FCFDFEFF22E480F8A2D574FF13FC7D806D
:03032600E480EF81
:10032900ED33EC33601004700FED547F70057402E7
:0A03390092E0227404220422E42260
:1003430074F8CC6480CCC86480C8F58204604FC361
:10035300EB9FF5F0EA9E42F0E99D42F0E89C45F000
:10036300603C501DE5825FFFE582D313CB5BCBF48A
:100373002B5582FB50280ABA002409B900200880B3
:100383001DE5825BFBE582D313CF5FCFF4C3132F4D
:100393005582FF50090EBE00050DBD00010CC3EBD5
:1003A3009FF5F0EA9E42F0E99D42F0E89C45F0603B
:0903B30007CC4820E701B3EC225D
:1003BC00ED33EC33600A047003BD8004ECB2E7FC4F
:0103CC00220E
:1003CD00EDD2E7CD33EC3392D524814006E4FFFE28
:1003DD00FDFC22FCE4CFCECDCC24E0501174FF8087
:1003ED00EDC3CC13CCCD13CDCE13CECF13CF047024
:0703FD00F030D5DE02065BC3
:10040400F920E73624F950037907E4F42402FBE5E4
:1004140082158270021583DBF6E024FB501BE96031
:1004240014E4F0E582158270021583E004F0B40A46
:0D04340008E4F0D9EE7401F00A22C2D522CE
:10044100ED33EC3392D5FA602AB4FF33EDC2E77B8A
:10045100FF60067A047966E4227A04796F20D50474
:100461007A04796A224E614E002B494E46002D498D
:100471004E4600E47A08F0A3DAFC7B00740722C040
:1004810083C082ECC0E0EDC0E0EEC0E0EFC0E0EA86
:1004910075F010A4CAABF075F04DA42BFBE435F058
:1004A100FCEA2410FAEB34C5FBEC34D9FCEDC2E7CD
:1004B100FF75F056A4F42411C5F0F434C58FF0A4EF
:1004C1002AE5F03BE43CF020E714120576D0E0FF8A
:1004D100D0E0FED0E0FDD0E0FC1202048014F40470
:1004E100120576D0E0FFD0E0FED0E0FDD0E0FC12B6
:1004F10000FBD082D083E0FAEDD2E7CD33EC332498
:1005010082FBE4C3CF33CFCE33CECD33CD33DBF358
:100511007B0775F00A846004F0A31B0AE5F0F0A3E1
:100521008FF0740AA4FFACF08EF0740AA42CFEAC18
:10053100F050010C8DF0740AA42CFDE435F0F0A309
:05054100DBDE7407225F
:101FC00033DA929E35B16011377FE5FE392184897D
:101FD0003AAEC3FF3C1D955B3D6358473E75FDF02F
:101FE0003F3172183F800000C2D502031E02031465
:101FF000BD80FA50F302031BED33EC330460F17B38
:102000003B7AAA79B8783F1200FBED33EC3392D5D6
:10201000247B5011A2D570DB500BED44802404507A
:1020200004A2D580CEEFFBEEFAEDF9ECF81203CD69
:10203000EFF582F404FC1202AB12000AC082901F7A
:10204000C074091205C5ED33CC33D0F092D525F01C
:0A205000A2D57001C313CC13FD22CA
:101CEF003E9248DA3ECCCCCD3F2AAAAB4000000052
:101CFF003F8000003F9837F03FB504F33FD744FCD7
:101D0F003E3172173EB172173F0515913EDE5BD91A
:101D1F00D2008002C200EDD2E7F8CD33EC3304706D
:101D2F000BBD800592D502031E02031440FBD31492
:101D3F0060F2F5F07C3FEE7A00C39496C8948B4026
:101D4F00230AC89469C8941A401A0AC89468C89498
:101D5F001F40110AC8945AC89425400805F07A000C
:101D6F00CDC2E7CDC0F0900046120695EA2323C0FE
:101D7F00E024FFF582E4341CF58312068512000A75
:101D8F00ECC0E0EDC0E0EEC0E0EFC0E012066990FD
:101D9F000046120679120006D0E0FBD0E0FAD0E040
:101DAF00F9D0E0B2E7F812020490004612069590BF
:101DBF001CEF74031205B69000461206791200FB51
:101DCF00D0E0600F240BF582E4341DF583120685F5
:101DDF0012000A900046120695D0E0C3947FFDE4EE
:101DEF009400FC1202A67B187A727931783F1200A8
:101DFF00FB90004612067912000A30000B7BD97A4D
:091E0F005B79DE783E1200FB2233
:100546003F8000004120000042C80000447A0000BD
:10055600461C400047C35000497424004B1896803F
:100566004CBEBC205A0E1BCA6753C21C749DC5AE36
:10057600FB60065407601C23231205A4EB54386065
:100586000912059012059F1200FBECF8EDF9EEFA40
:10059600EFCB22EB12059F80F1543803241C900503
:1005A60046FE93FC0EEE93FD0EEE930ECE93FF22C7
:1005B600C0E0EFFBEEFAEDF9ECF81200FBD0E0F547
:1005C600F0EFFBEEFAEDF9ECF8120669A3A3A3A38C
:1005D600E8C0E0E9C0E0EAC0E0EBC0E0C0F012002D
:1005E600FB120685A3A3A3A312000AD0F0D0E0FB5A
:0D05F600D0E0FAD0E0F9D0E0F8D5F0D42242
:0300000002205A81
:0C205A00787FE4F6D8FD7581210220A1FA
:10060300BB010689828A83E0225002E722BBFE02F5
:09061300E32289828A83E4932228
:10061C00BB010CE58229F582E5833AF583E0225093
:10062C0006E92582F8E622BBFE06E92582F8E222DD
:0D063C00E58229F582E5833AF583E49322F7
:10064900BB010689828A83F0225002F722BBFE0190
:02065900F3228A
:0E065B00C3E49FFFE49EFEE49DFDE49CFC22B0
:10066900E493FC740193FD740293FE740393FF22D7
:0C067900E0F8A3E0F9A3E0FAA3E0FB2204
:10068500E493F8740193F9740293FA740393FB22CB
:0C069500ECF0A3EDF0A3EEF0A3EFF022D8
:1006A100A8828583F0D083D0821206B81206B812D0
:1006B10006B81206B8E473E493A3C583C5F0C583F5
:1006C100C8C582C8F0A3C583C5F0C583C8C582C8A3
:0106D1002206
:1006D200F8E0FBA3A3E0F925F0F0E58215827002B1
:0706E2001583E0FA38F02255
:0906E900EBF0A3EAF0A3E9F02212
:1006F200D083D082F8E4937012740193700DA3A397
:1007020093F8740193F5828883E4737402936860AA
:06071200EFA3A3A380DFAA
:10238F00EFB40A07740D12239A740A309811A899A2
:10239F00B8130CC2983098FDA899C298B811F630AE
:0723AF0099FDC299F5992286
:10206600022304E493A3F8E493A34003F68001F269
:1020760008DFF48029E493A3F85407240CC8C3337B
:10208600C4540F4420C8834004F456800146F6DF4A
:10209600E4800B010204081020408090226AE47E4E
:1020A600019360BCA3FF543F30E509541FFEE4933F
:1020B600A360010ECF54C025E060A840B8E493A306
:1020C600FAE493A3F8E493A3C8C582C8CAC583CA31
:1020D600F0A3C8C582C8CAC583CADFE9DEE780BEE9
:0122B8000025
:00000001FF
