:03235E00256600F1
:10216100520006303132333435363738392B2D2A87
:102171002F28292E3D44002E00000000440032008B
:1021810000000044003600000000410018FF41003B
:102191003AFF41002B0041002C0041002D0041007D
:0E21A100000041001A00410019004100050035
:10230F0090002E1206A100000000E490002BF02296
:10231F009000321206A100000000E490002CF02281
:10232F009000361206A100000000E490002DF0226C
:101D3300900000E0FF14602724FE603424FE70034B
:101D4300021DD024056003021E19900018E004F060
:101D5300E02401F582E43400F583EFF0021E1990CC
:101D6300001AE064017075900000E02480F0806C3C
:101D730090001AE064017007900000E02480F09066
:101D83000019E064017007900000E02440F0900027
:101D930000E0FF900018E004F02401F582E4340031
:101DA300F583EFF090002EE0FCA3E0FDA3E0FEA39B
:101DB300E0FF90003AE004F025E025E0241BF582E3
:101DC300E43400F5831206959000328028900019C0
:101DD300E064017007900000E02440F0900000E010
:101DE300FF900018E004F02401F582E43400F58349
:101DF300EFF090002EE0FCA3E0FDA3E0FEA3E0FFE4
:101E030090003AE004F025E025E0241BF582E43459
:091E130000F58312069502230F6D
:101AC900900018E0FF14F074012FF582E43400F55A
:101AD90083E0FF543F14601D24FE605A24FE700306
:101AE900021BB824056003021C09E4900000F09071
:101AF900002E021BF89000007402F0EF30E008900D
:101B0900001A7401F08005E490001AF090002EE0AC
:101B1900FCA3E0FDA3E0FEA3E0FFA312069590005D
:101B29003AE0FF14F0EF25E025E0241BF582E434C8
:101B390000F583021BF89000007404F0EF30E00810
:101B490090001A7401F08005E490001AF0EF30E07B
:101B5900089000197401F08005E4900019F09000D4
:101B69002EE0FCA3E0FDA3E0FEA3E0FF9000361207
:101B7900069590003AE0FF14F0EF25E025E0241BDC
:101B8900F582E43400F583E0FCA3E0FDA3E0FEA3C5
:101B9900E0FF90003212069590003AE0FF14F0EF52
:101BA90025E025E0241BF582E43400F5838040908C
:101BB90000007406F0EF30E0089000197401F0801D
:101BC90005E4900019F090002EE0FCA3E0FDA3E0ED
:101BD900FEA3E0FF90003612069590003AE0FF144C
:101BE900F0EF25E025E0241BF582E43400F583E0DD
:101BF900FCA3E0FDA3E0FEA3E0FF90002E120695F2
:011C090022B8
:1021B00090004874FFF0A37423F0A3745EF0A312A0
:1021C00006957B017A00793D120DF17FC012234AFA
:1021D000E490003CF090003CE0FFC39408748094CD
:1021E000805017743D2FF582E43400F583E0FF1230
:0A21F000235490003CE004F080DB73
:0121FA0022C2
:0B233F00EF1FAC0670011E4C70F62270
:1022C900EFFDC374809480400DD3ED94097480941C
:0922D9008050037F01227F0022E6
:101E1C0090003C747FF0E4A3F075900FAF90EF64EA
:101E2C000F60767FE87E0312233FAF90EF640F6064
:101E3C006875900FAF90EF24F5601224FE601614B5
:101E4C00601B2407701DE490003CF0801690003C51
:101E5C007401F0800E90003C7402F0800690003CFF
:101E6C007403F07590F0AF90EF2450601324E06091
:101E7C001824F0601D2470702090003CE0F0801954
:101E8C0090003CE02404F0801090003CE02408F02A
:101E9C00800790003CE0240CF090003DE0FF33956F
:101EAC00E0FEC3EF9432EE648094805013AF90EF59
:101EBC0064F0600C7FA07E0012233FE004F080D918
:0E1ECC0090003CE0FE640F70037F1222AF0610
:011EDA0022E5
:10210C0075B0FF7FE87E0312233F20B00630B0FD90
:10211C007F0A2220B10630B1FD7F0B2220B206309F
:10212C00B2FD7F0C2220B30630B3FD7F0D2220B40C
:10213C000630B4FD7F0E2220B50630B5FD7F0F2290
:10214C0020B60630B6FD7F102220B70630B7FD7FD3
:05215C0011227F7F222B
:1022AD007F7FEF647F701212210CEF647F6001223B
:0B22BD00121E1CEF647F60EA227F7F8E
:0122C80022F3
:1022FB007F0112234A12230F12231F12232FE49064
:04230B000000F022BC
:1017E7001222AD90003BEFF064117020E02406F563
:1017F70082E43400F583E0FF12235490002EE0FCCE
:10180700A3E0FDA3E0FEA3E0FF0221B090003BE0D0
:10181700641270030222FB90003BE0FF1222C9EF23
:10182700640160030218D590002BE0703CFFFE7D39
:10183700207C4190002EE0F8A3E0F9A3E0FAA3E0B2
:10184700FB1200FBC004C005C006C00790003BE0C8
:10185700FCE41202ABD003D002D001D00012000A80
:1018670090002E12069502195090002EE0F8A3E082
:10187700F9A3E0FAA3E0FBC000C001C002C00390D7
:10188700002BE0FCE41202AB9000401206957FCDDE
:101897007ECC7DCC7C3D121963C004C005C006C058
:1018A7000790003BE0FCE41202ABD003D002D0016A
:1018B700D0001200FBD003D002D001D00012000AE2
:1018C70090002E12069590002BE004F0807B90008C
:1018D7003BE0FF7E006410700A90002BE0706A0402
:1018E700F08066EF640E4E7006121D33E4801C9084
:1018F700003BE0F9FB7A00640F7005121AC98049B2
:10190700EB640A4A700B90001A04F0900000F08014
:1019170038E9FF7E00640B700B90001AF09000000E
:1019270004F08025EF640C4E700E9000007405F0F3
:101937009000197401F08011EF640D4E700B900048
:10194700007405F0E4900019F090003BE02406F5E0
:0B19570082E43400F583E0FF1223540B
:011962002262
:102001001222AD90003BEFF012231F90003BE0FF46
:102011001222C9EF64017013E0FCE41202AB9000DC
:10202100321206959000007402800F90003BE0642C
:102031000E701A121D33E4900000F090003BE02472
:1020410006F582E43400F583E0FF02235490003B5F
:08205100E0641270031222FB8F
:012059002264
:10154C001222AD90003BEFF06411706E900000F031
:10155C0090001AE0640190002E701CE0FCA3E0FDEA
:10156C00A3E0FEA3E0FFA3E0F8A3E0F9A3E0FAA355
:10157C00E0FB12000A801AE0FCA3E0FDA3E0FEA34E
:10158C00E0FFA3E0F8A3E0F9A3E0FAA3E0FB12006C
:10159C000690002E12069590003BE02406F582E49E
:1015AC003400F583E0FF12235490002EE0FCA3E0FE
:1015BC00FDA3E0FEA3E0FF0221B090003BE064122B
:1015CC0070030222FB90003BE0FF1222C9EF640182
:1015DC00600302168990002CE0703CFFFE7D207C9D
:1015EC0041900032E0F8A3E0F9A3E0FAA3E0FB128B
:1015FC0000FBC004C005C006C00790003BE0FCE443
:10160C001202ABD003D002D001D00012000A90001D
:10161C00321206950217D4900032E0F8A3E0F9A339
:10162C00E0FAA3E0FBC000C001C002C00390002C94
:10163C00E0FCE41202AB9000401206957FCD7ECC0C
:10164C007DCC7C3D121963C004C005C006C0079058
:10165C00003BE0FCE41202ABD003D002D001D0007E
:10166C001200FBD003D002D001D00012000A90006F
:10167C003212069590002CE004F00217D490003B37
:10168C00E0FF7E00640C700F9000007403F090007B
:10169C00197401F00217D4EF640F4E704D90001ABC
:1016AC00E0640190002E701CE0FCA3E0FDA3E0FEC2
:1016BC00A3E0FFA3E0F8A3E0F9A3E0FAA3E0FB1298
:1016CC00000A801AE0FCA3E0FDA3E0FEA3E0FFA368
:1016DC00E0F8A3E0F9A3E0FAA3E0FB120006900007
:1016EC002E120695121AC90217D490003BE0FF7E09
:1016FC00006410700E90002CE060030217D404F00C
:10170C000217D4EF640D4E700E9000007403F0E4D9
:10171C00900019F00217D490003BE0640A704F90CF
:10172C00001AE0640190002E701CE0FCA3E0FDA305
:10173C00E0FEA3E0FFA3E0F8A3E0F9A3E0FAA3E046
:10174C00FB12000A801AE0FCA3E0FDA3E0FEA3E07C
:10175C00FFA3E0F8A3E0F9A3E0FAA3E0FB12000674
:10176C0090002E1206959000007401F080569000A7
:10177C003BE0640B705290001AE0640190002E70F4
:10178C001CE0FCA3E0FDA3E0FEA3E0FFA3E0F8A3B4
:10179C00E0F9A3E0FAA3E0FB12000A801AE0FCA334
:1017AC00E0FDA3E0FEA3E0FFA3E0F8A3E0F9A3E0D3
:1017BC00FAA3E0FB12000690002E12069590000092
:1017CC007401F0E490001AF090003BE02406F582DE
:0A17DC00E43400F583E0FF1223540B
:0117E60022E0
:10205A001222AD90003BEFF012232F90003BE0FFDD
:10206A001222C9EF64017013E0FCE41202AB900083
:10207A00361206959000007404800F90003BE064CD
:10208A000E701A121D33E4900000F090003BE02419
:10209A0006F582E43400F583E0FF02235490003B06
:0820AA00E0641270031222FB36
:0120B200220B
:100718001222AD90003BEFF01222C9EF6401600392
:100728000207D390002DE0703CFFFE7D207C4190B5
:100738000036E0F8A3E0F9A3E0FAA3E0FB1200FB1F
:10074800C004C005C006C00790003BE0FCE41202EC
:10075800ABD003D002D001D00012000A90003612AC
:100768000695020D45900036E0F8A3E0F9A3E0FAFB
:10077800A3E0FBC000C001C002C00390002DE0FC54
:10078800E41202AB9000401206957FCD7ECC7DCC62
:100798007C3D121963C004C005C006C00790003B29
:1007A800E0FCE41202ABD003D002D001D00012006A
:1007B800FBD003D002D001D00012000A90003612FC
:1007C800069590002DE004F0020D4590003BE0FFF7
:1007D8007E006410700E90002DE06003020D450449
:1007E800F0020D45EF640A4E600302091190001AE9
:1007F800E06401600302087F900019E06401900042
:100808002E7034E0F8A3E0F9A3E0FAA3E0FBC000FF
:10081800C001C002C003900036E0FCA3E0FDA3E0E5
:10082800FEA3E0FF900032E0F8A3E0F9A3E0FAA30A
:10083800E0FB1200FB8032E0F8A3E0F9A3E0FAA3A2
:10084800E0FBC000C001C002C003900036E0F8A37E
:10085800E0F9A3E0FAA3E0FB900032E0FCA3E0FD9E
:10086800A3E0FEA3E0FF120204D003D002D001D01F
:100878000012000A020903900019E0640190002E9A
:100888007034E0FCA3E0FDA3E0FEA3E0FFC004C0D9
:1008980005C006C007900036E0FCA3E0FDA3E0FE1B
:1008A800A3E0FF900032E0F8A3E0F9A3E0FAA3E0A8
:1008B800FB1200FB8032E0FCA3E0FDA3E0FEA3E016
:1008C800FFC004C005C006C007900036E0F8A3E0EA
:1008D800F9A3E0FAA3E0FB900032E0FCA3E0FDA35B
:1008E800E0FEA3E0FF120204A804A905AA06AB07CC
:1008F800D007D006D005D00412000690002E1206AC
:100908009590001A7401020C1B90003BE0640B6088
:1009180003020A3D90001AE0640160030209A690F0
:100928000019E0640190002E7034E0F8A3E0F9A308
:10093800E0FAA3E0FBC000C001C002C0039000368B
:10094800E0FCA3E0FDA3E0FEA3E0FF900032E0F8A6
:10095800A3E0F9A3E0FAA3E0FB1200FB8032E0F881
:10096800A3E0F9A3E0FAA3E0FBC000C001C002C005
:1009780003900036E0F8A3E0F9A3E0FAA3E0FB90C7
:100988000032E0FCA3E0FDA3E0FEA3E0FF120204B6
:10099800D003D002D001D00012000A020A2A900027
:1009A80019E0640190002E7034E0FCA3E0FDA3E0A0
:1009B800FEA3E0FFC004C005C006C007900036E0F3
:1009C800FCA3E0FDA3E0FEA3E0FF900032E0F8A363
:1009D800E0F9A3E0FAA3E0FB1200FB8032E0FCA3FD
:1009E800E0FDA3E0FEA3E0FFC004C005C006C00709
:1009F800900036E0F8A3E0F9A3E0FAA3E0FB90004A
:100A080032E0FCA3E0FDA3E0FEA3E0FF120204A88D
:100A180004A905AA06AB07D007D006D005D0041252
:100A2800000690002E120695E490001AF09000003F
:100A380004F0020D4590003BE0640C7056900019DC
:100A4800E06401900032701CE0FCA3E0FDA3E0FE2E
:100A5800A3E0FFA3E0F8A3E0F9A3E0FAA3E0FB1208
:100A680000FB801AE0FCA3E0FDA3E0FEA3E0FFA3E7
:100A7800E0F8A3E0F9A3E0FAA3E0FB120204900077
:100A8800321206959000007403F09000197401F07A
:100A9800020D4590003BE0640D7055900019E0642C
:100AA80001900032701CE0FCA3E0FDA3E0FEA3E08F
:100AB800FFA3E0F8A3E0F9A3E0FAA3E0FB1200FB30
:100AC800801AE0FCA3E0FDA3E0FEA3E0FFA3E0F8AA
:100AD800A3E0F9A3E0FAA3E0FB12020490003212AB
:100AE80006959000007403F0E4900019F0020D459B
:100AF80090003BE064116003020C2390001AE0644C
:100B0800016003020B8D900019E0640190002E70C3
:100B180034E0F8A3E0F9A3E0FAA3E0FBC000C001C9
:100B2800C002C003900036E0FCA3E0FDA3E0FEA3F2
:100B3800E0FF900032E0F8A3E0F9A3E0FAA3E0FBBD
:100B48001200FB8032E0F8A3E0F9A3E0FAA3E0FB8F
:100B5800C000C001C002C003900036E0F8A3E0F96D
:100B6800A3E0FAA3E0FB900032E0FCA3E0FDA3E0E1
:100B7800FEA3E0FF120204D003D002D001D000127D
:100B8800000A020C11900019E0640190002E7034E4
:100B9800E0FCA3E0FDA3E0FEA3E0FFC004C005C0A5
:100BA80006C007900036E0FCA3E0FDA3E0FEA3E04A
:100BB800FF900032E0F8A3E0F9A3E0FAA3E0FB120B
:100BC80000FB8032E0FCA3E0FDA3E0FEA3E0FFC051
:100BD80004C005C006C007900036E0F8A3E0F9A3FA
:100BE800E0FAA3E0FB900032E0FCA3E0FDA3E0FE06
:100BF800A3E0FF120204A804A905AA06AB07D007C0
:100C0800D006D005D00412000690002E120695E4F6
:100C180090001AF0900000F0020D4590003BE0644F
:100C28000F6003020D4590001AE064016003020C96
:100C3800B8900019E0640190002E7034E0F8A3E049
:100C4800F9A3E0FAA3E0FBC000C001C002C0039012
:100C58000036E0FCA3E0FDA3E0FEA3E0FF90003235
:100C6800E0F8A3E0F9A3E0FAA3E0FB1200FB80326E
:100C7800E0F8A3E0F9A3E0FAA3E0FBC000C001C0DC
:100C880002C003900036E0F8A3E0F9A3E0FAA3E07D
:100C9800FB900032E0FCA3E0FDA3E0FEA3E0FF121E
:100CA8000204D003D002D001D00012000A020D3C89
:100CB800900019E0640190002E7034E0FCA3E0FD80
:100CC800A3E0FEA3E0FFC004C005C006C007900073
:100CD80036E0FCA3E0FDA3E0FEA3E0FF900032E0D5
:100CE800F8A3E0F9A3E0FAA3E0FB1200FB8032E0EE
:100CF800FCA3E0FDA3E0FEA3E0FFC004C005C0061E
:100D0800C007900036E0F8A3E0F9A3E0FAA3E0FBFF
:100D1800900032E0FCA3E0FDA3E0FEA3E0FF120296
:100D280004A804A905AA06AB07D007D006D005D0A9
:100D38000412000690002E120695121AC990003B64
:100D4800E0FF6411600F74062FF582E43400F58328
:100D5800E0FF02235490003BE0641270030222FB80
:100D680090003BE02406F582E43400F583E0FF12AE
:100D7800235490002EE0FCA3E0FDA3E0FEA3E0FFD7
:030D88001221B085
:010D8B002245
:1020B3001222AD90003BEFF012232F90003BE0FF84
:1020C3001222C9EF64017013E0FCE41202AB90002A
:1020D300361206959000007406800F90003BE06472
:1020E3000E701A121D33E4900000F090003BE024C0
:1020F30006F582E43400F583E0FF02235490003BAD
:08210300E0641270031222FBDC
:01210B0022B1
:10120F001222AD90003BEFF01222C9EF6401600390
:10121F000212C790002DE07039FFFE7D207C4190B7
:10122F000036E0F8A3E0F9A3E0FAA3E0FB1200FB1D
:10123F00C004C005C006C00790003BE0FCE41202EA
:10124F00ABD003D002D001D00012000A90003602BA
:10125F0014AA900036E0F8A3E0F9A3E0FAA3E0FBAC
:10126F00C000C001C002C00390002DE0FCE41202D8
:10127F00AB9000401206957FCD7ECC7DCC7C3D128D
:10128F001963C004C005C006C00790003BE0FCE432
:10129F001202ABD003D002D001D0001200FBD0035A
:1012AF00D002D001D00012000A900036120695909D
:1012BF00002DE004F002150590003BE0FF7E006476
:1012CF0010700E90002DE0600302150504F002155A
:1012DF0005EF640A4E7053900019E0640190002EE0
:1012EF00701EE0FCA3E0FDA3E0FEA3E0FF9000363C
:1012FF00E0F8A3E0F9A3E0FAA3E0FB1200FB801CE7
:10130F00E0FCA3E0FDA3E0FEA3E0FF900036E0F8D1
:10131F00A3E0F9A3E0FAA3E0FB12020490002E125F
:10132F0006959000007401F0805A90003BE0640B2A
:10133F007059900019E0640190002E701EE0FCA31C
:10134F00E0FDA3E0FEA3E0FF900036E0F8A3E0F994
:10135F00A3E0FAA3E0FB1200FB801CE0FCA3E0FD7E
:10136F00A3E0FEA3E0FF900036E0F8A3E0F9A3E0CE
:10137F00FAA3E0FB12020490002E120695900000D3
:10138F007401F0E490001AF002150590003BE06440
:10139F000C7053900019E0640190002E701EE0FC59
:1013AF00A3E0FDA3E0FEA3E0FF900036E0F8A3E08A
:1013BF00F9A3E0FAA3E0FB1200FB801CE0FCA3E022
:1013CF00FDA3E0FEA3E0FF900036E0F8A3E0F9A351
:1013DF00E0FAA3E0FB12020490002E120695900093
:1013EF00197401F0805890003BE0640D7059900023
:1013FF0019E0640190002E701EE0FCA3E0FDA3E055
:10140F00FEA3E0FF900036E0F8A3E0F9A3E0FAA313
:10141F00E0FB1200FB801CE0FCA3E0FDA3E0FEA3B9
:10142F00E0FF900036E0F8A3E0F9A3E0FAA3E0FBB9
:10143F0012020490002E120695E4900019F090000D
:10144F00007405F002150590003BE0641170519097
:10145F000000F0900019E0640190002E701EE0FC77
:10146F00A3E0FDA3E0FEA3E0FF900036E0F8A3E0C9
:10147F00F9A3E0FAA3E0FB1200FB801CE0FCA3E061
:10148F00FDA3E0FEA3E0FF900036E0F8A3E0F9A390
:10149F00E0FAA3E0FB12020490002E12069580568C
:1014AF0090003BE0640F704E900019E064019000D3
:1014BF002E701EE0FCA3E0FDA3E0FEA3E0FF900072
:1014CF0036E0F8A3E0F9A3E0FAA3E0FB1200FB80FB
:1014DF001CE0FCA3E0FDA3E0FEA3E0FF900036E0DC
:1014EF00F8A3E0F9A3E0FAA3E0FB12020490002EA8
:1014FF00120695121AC990003BE0FF641170207418
:10150F00062FF582E43400F583E0FF122354900098
:10151F002EE0FCA3E0FDA3E0FEA3E0FF0221B090CC
:10152F00003BE0641270030222FB90003BE02406B4
:0C153F00F582E43400F583E0FF12235431
:01154B00227D
:1021FB001222E2900000E0B4070050F790220EF894
:10220B0028287302222302222802222D02223202C4
:10221B00223702223C0222411217E780D6122001FC
:10222B0080D112154C80CC12205A80C7120718800F
:0B223B00C21220B380BD12120F80B849
:10224600C2A58F807F017E00122257D2A77F057E0E
:012256000087
:10225700D3EF9400EE940040257DC7EDD39400742E
:1022670080948040127C01ECD39400748094804069
:0E227700031C80F31D80E4EF1F70D51E80D283
:012285002236
:0A234A00C2A7C2A6122246C2A722B3
:0A235400C2A7D2A6122246C2A72299
:1022E2007F3812234A7F0C12234A7F0612234A7F29
:0922F2000112234A7F8002234AF5
:10000300020314E86480F8E933E83360110460F014
:10001300ED33EC337009E8FCE9FDEAFEEBFF220463
:1000230060DED3EB9FEA9EE99DE8C2E78CF0C2F75E
:1000330095F0400CE8CCF8E9CDF9EACEFAEBCFFB2A
:100043001202DF85D0F05804700320D5B3E80470A2
:10005300075002B2D502031E92D5EC0460F7E4CC3C
:10006300C0E0C398F8603B94186008400DD0E0FBF3
:100073000202F6E4FBFAC9FC8028E830E406E4C98E
:10008300FBE4CAFCE830E305E4C9CACBFCE8540747
:100093006010F8C3E913F9EA13FAEB13FBEC13FC52
:1000A300D8F130F52FC3E49CFCEF9BFFEE9AFEEDF5
:1000B30099FDD0E0FBEF4E4D4C701222DB0302039F
:1000C3001BEC2CFCEF33FFEE33FEED33FDED30E79D
:1000D300EB0202F6EF2BFFEE3AFEED39FDD0E0FB2B
:1000E30050130BBB000302031EED13FDEE13FEEFD3
:0800F30013FFEC13FC0202F6FE
:1000FB00EC4D6011E8497017ED33EC3304600DE4FF
:10010B00FCFFFEFD22E933E8330470F802031412FE
:10011B0002DF58046009E4CC248150062850090200
:10012B00031E28400302031BC0E0EB4A7044B98056
:10013B0006D0E0FB02030AEF4E701CBD8008EBFFFC
:10014B00EAFEE9FD80EBE98DF0A4FEE5F00201E4A7
:10015B00E9CDF9EAFEEBFFEF89F0A4FCE5F0CE89DF
:10016B00F0A42EFFE435F0CD89F0A42DFEE435F09C
:10017B008067EF4E7005BD80D780C3EF8BF0A4ACCA
:10018B00F0EE8BF0A42CFCE435F0F8EF8AF0A42C05
:10019B00E5F038FCE433CB8DF0A42CFCE5F03BF818
:1001AB00EE8AF0A42CFCE5F038F8E433CF89F0A408
:1001BB002CFCE5F038CF3400CE89F0A42FFFE5F00E
:1001CB003EFEE433C98DF0A42EFEE5F039CD8AF066
:1001DB00A42FFFE5F03EFEE43DFD33D0E0FB5007DE
:1001EB000BBB000F02031EEC2CFCEF33FFEE33FEB8
:0601FB00ED33FD0202F6E7
:1002010002031EEC5D046005E85904700302031447
:100211001202DF580460F6EC4860F2EC7004FDFE57
:10022100FF22C860DB2481C85009C39860025006D0
:1002310002031B9850CAF582E9294B4A7005AB822B
:1002410002030A75F0007C1A7880C3EF9BEE9AEDE9
:1002510099400DC3EF9BFFEE9AFEED99FDE842F048
:10026100DC23ACF0D0E0FFD0E0FED0E0FDAB82209B
:10027100E7101BEB60BAEC2CFCEF33FFEE33FEED25
:1002810033FD0202F6E803F830E705C0F075F0002F
:10029100EF2FFFEE33FEED33FD40B830E7C280AA09
:1002A10075F020800E75F010800575F0087D007ED8
:1002B100007F003392D530D50312065BEC3340103A
:1002C100EF33FFEE33FEED33FDEC33FCD5F0ED22E1
:0E02D100E5F0247EA2D513CC92E7CDCEFF221D
:100D8C00E5082448F582E43400F583E00508229058
:100D9C000045300703900048E475F0011206D202BA
:100DAC0006032000E97F2ED2008018EF540F249008
:100DBC00D43440D4FF30040BEF24BFB41A005003DA
:100DCC002461FFE50960021509050CE50C700205AC
:100DDC000B30070E900045E475F0011206D2EF02BD
:100DEC0006490222867403D2078003E4C207F50881
:100DFC009000451206E9E4F509F50BF50CE50960E0
:100E0C00077F20120DCF80F5750AFFC201C200C208
:100E1C0002C203C205C206C208120D9BFF700D3040
:100E2C0007057F00120DE0AF0CAE0B22B4255FC29C
:100E3C00D5C204120D9BFF24D0B40A00501A75F0D1
:100E4C000A780930D50508B6FF0106C6A426F62097
:100E5C00D5047002D20380D924CFB41A00EF500409
:100E6C00C2E5D2040210D2D20180C6D20080C0D218
:100E7C000280BCD2D580BAD20580B47F20120DCFAF
:100E8C002002077401B5090040F1120D8CFF120D00
:100E9C00CF020E09D208D2068095120D8CFB120DD2
:100EAC008CFA120D8CF94A4B700679D07A117BFFB3
:100EBC0020022EE509602A7E008E827583001206C0
:100ECC001C60060EEE650A70F0C2D5EBC0E0EAC0FD
:100EDC00E0E9C0E0EE121133D0E0F9D0E0FAD0E056
:100EEC00FB120603FF60AAEBC0E0EAC0E0E9C0E039
:100EFC00120DCFD0E02401F9D0E03400FAD0E0FBA1
:100F0C00E50A0460DCD50AD98087D20280A21211CE
:100F1C001560F7E50A700104120404A90A600DE5D6
:100F2C000A600914F50A1211BDEF60F3EA30E7020A
:100F3C00F404C3995079EAF4250A0430E701E40477
:100F4C00F50A800D12111560C1EA050A250A120472
:100F5C0004EA900074F030E701E4250A04D50A0491
:100F6C0020050114121133E4C0E01211BD9000747D
:100F7C00E0601320E70714F0120DB7802204F0D0C4
:100F8C00E014C0E07F00120DB7E50A6007120DAE49
:100F9C00150A800B300503120DAED0E0020E09D0FD
:100FAC00E00480C4121115609EE50A04120404903A
:100FBC000074EAF0E50A2005026001042404121111
:010FCC0033F1
:100FCD0074FF04C0E01211BD120DB7E50A20050231
:100FDD006003120DAED0E0B50AE87F45120DC19049
:100FED000074E07F2B30E7047F2DF404C0E0120D78
:100FFD00CFD0E075F00A84C0F0120DB8D0E0120D1C
:10100D00B8020E09791080027908C206C20880085C
:10101D00D2D5790A8004790AC2D5E50A047002F5A1
:10102D000AE4FAFDFEFF120D8CFC7B082001131261
:10103D000D8CFD7B1030000A120D8CFE120D8CFFF5
:10104D007B20EC3382D592D55013C3E43000069F3C
:10105D00FFE49EFEE42001039DFDE49CFCE4CBF83F
:10106D00C201EC700CCFCECDCCE824F8F870F38033
:10107D0017C3EF33FFEE33FEED33FDEC33FCEB33F3
:10108D00FB994002FB0FD8E9EB300105F8D0E0C425
:10109D0048B201C0E00AEC4D4E4F78207B0070C283
:1010AD00EAB50A0040BCC0E0121135D0F0D0E02006
:1010BD000104C4C0E0C4B201C0F0120DB8D0F0D527
:1010CD00F0EB020E091206F20EA6531011580E7710
:1010DD004C0E734210154F101D44101D490E8C43BC
:1010ED001023550F50460FB0450F1A4711F0500EF3
:1010FD007B2D0E7F2E0EA22B0E83230EA02011D939
:10110D002A0E3B4800000E9AE50AB4FF03750A0645
:10111D00120D8CFC120D8CFD120D8CFE120D8CFF20
:10112D0090006D020441790AA2D5200314300509FF
:10113D00B910020404B9080104A2D5200602500119
:10114D00042002689202B509005034C0E07F2030BF
:10115D0003197F30A20272067205500F12118CC254
:10116D0002C206C205C2087F30800F300503E9C0F8
:10117D00E0120DCF300503D0E0F9D0E0B509CC3049
:10118D0005177F30B9100C120DCF7F583004077F33
:10119D00788003B90803120DCF3002057F2D020DA3
:1011AD00CF7F202008F87F2B2006F322920280CFDC
:1011BD007F00B40700500B246DF582E43400F583F5
:1011CD00E0FF22286E756C6C2900D201120D8C3057
:1011DD0001F8C201780930D50108F6020E3B2D50F9
:1011ED00434958120D8C2403B405004001E49011BD
:1011FD00EB93120DC0743A120DC0D203750904029F
:02120D001011BE
:1019630090003C120695E4FFFE7D807C3F90003C96
:10197300E0F8A3E0F9A3E0FAA3E0FB120343700647
:1019830090003C021ABD90003CE0FCA3E0FDA3E004
:10199300FEA3E0FF120329FBA3E0FCA3E0FDA3E009
:1019A300FEA3E0FF120329FFB40108E4FFFE7D80DC
:1019B3007C3F22EF64046029EB64046024EBB401F0
:1019C30030E4FFFEFDFC900040E0F8A3E0F9A3E063
:1019D300FAA3E0FB12034360084006E4FFFEFDFCAC
:1019E300229000401206A1FFFFFFFF900040021A61
:1019F300BDE4900044F0A3F0FFFEFDFC90003CE04A
:101A0300F8A3E0F9A3E0FAA3E0FB120343505F90CD
:101A13000040E0FCA3E0FDA3E0FEA3E0FF1203CD42
:101A2300900044EEF0A3EFF0FDCCEECCEC1202A656
:101A3300C8ECC8C9EDC9CAEECACBEFCB900040E0F1
:101A4300FCA3E0FDA3E0FEA3E0FF120006E4FBFA23
:101A5300F9F8120343708A90003CE0FCA3E0FDA375
:101A6300E0FEA3E0FF1203BC90003C120695900039
:101A73003CE0FCA3E0FDA3E0FEA3E0FF121C3E90CC
:101A83000040E0F8A3E0F9A3E0FAA3E0FB1200FBB7
:101A9300121F13900040120695900045E030E017A6
:101AA300900040E0FCA3E0FDA3E0FEA3E0FF1203EF
:101AB300BC900040120695900040E0FCA3E0FDA31B
:061AC300E0FEA3E0FF229B
:1002DF00E9D2E7C933E833F892D5EDD2E7CD33EC65
:0702EF0033FC5002B2D522DE
:1002F600EC30E7100FBF000C0EBE00080DBD000469
:100306000BEB6014A2D5EB13FCED92E7FD2274FF14
:10031600FCFDFEFF22E480F8A2D574FF13FC7D806D
:03032600E480EF81
:10032900ED33EC33601004700FED547F70057402E7
:0A03390092E0227404220422E42260
:1003430074F8CC6480CCC86480C8F58204604FC361
:10035300EB9FF5F0EA9E42F0E99D42F0E89C45F000
:10036300603C501DE5825FFFE582D313CB5BCBF48A
:100373002B5582FB50280ABA002409B900200880B3
:100383001DE5825BFBE582D313CF5FCFF4C3132F4D
:100393005582FF50090EBE00050DBD00010CC3EBD5
:1003A3009FF5F0EA9E42F0E99D42F0E89C45F0603B
:0903B30007CC4820E701B3EC225D
:1003BC00ED33EC33600A047003BD8004ECB2E7FC4F
:0103CC00220E
:1003CD00EDD2E7CD33EC3392D524814006E4FFFE28
:1003DD00FDFC22FCE4CFCECDCC24E0501174FF8087
:1003ED00EDC3CC13CCCD13CDCE13CECF13CF047024
:0703FD00F030D5DE02065BC3
:10040400F920E73624F950037907E4F42402FBE5E4
:1004140082158270021583DBF6E024FB501BE96031
:1004240014E4F0E582158270021583E004F0B40A46
:0D04340008E4F0D9EE7401F00A22C2D522CE
:10044100ED33EC3392D5FA602AB4FF33EDC2E77B8A
:10045100FF60067A047966E4227A04796F20D50474
:100461007A04796A224E614E002B494E46002D498D
:100471004E4600E47A08F0A3DAFC7B00740722C040
:1004810083C082ECC0E0EDC0E0EEC0E0EFC0E0EA86
:1004910075F010A4CAABF075F04DA42BFBE435F058
:1004A100FCEA2410FAEB34C5FBEC34D9FCEDC2E7CD
:1004B100FF75F056A4F42411C5F0F434C58FF0A4EF
:1004C1002AE5F03BE43CF020E714120576D0E0FF8A
:1004D100D0E0FED0E0FDD0E0FC1202048014F40470
:1004E100120576D0E0FFD0E0FED0E0FDD0E0FC12B6
:1004F10000FBD082D083E0FAEDD2E7CD33EC332498
:1005010082FBE4C3CF33CFCE33CECD33CD33DBF358
:100511007B0775F00A846004F0A31B0AE5F0F0A3E1
:100521008FF0740AA4FFACF08EF0740AA42CFEAC18
:10053100F050010C8DF0740AA42CFDE435F0F0A309
:05054100DBDE7407225F
:101EDB0033DA929E35B16011377FE5FE3921848963
:101EEB003AAEC3FF3C1D955B3D6358473E75FDF015
:101EFB003F3172183F800000C2D502031E0203144B
:101F0B00BD80FA50F302031BED33EC330460F17B1D
:101F1B003B7AAA79B8783F1200FBED33EC3392D5BC
:101F2B00247B5011A2D570DB500BED448024045060
:101F3B0004A2D580CEEFFBEEFAEDF9ECF81203CD4F
:101F4B00EFF582F404FC1202AB12000AC082901E61
:101F5B00DB74091205C5ED33CC33D0F092D525F0E7
:0A1F6B00A2D57001C313CC13FD22B0
:101C0A003E9248DA3ECCCCCD3F2AAAAB4000000037
:101C1A003F8000003F9837F03FB504F33FD744FCBC
:101C2A003E3172173EB172173F0515913EDE5BD900
:101C3A00D2008002C200EDD2E7F8CD33EC33047053
:101C4A000BBD800592D502031E02031440FBD31478
:101C5A0060F2F5F07C3FEE7A00C39496C8948B400C
:101C6A00230AC89469C8941A401A0AC89468C8947E
:101C7A001F40110AC8945AC89425400805F07A00F2
:101C8A00CDC2E7CDC0F0900046120695EA2323C0E4
:101C9A00E0241AF582E4341CF58312068512000A40
:101CAA00ECC0E0EDC0E0EEC0E0EFC0E012066990E3
:101CBA000046120679120006D0E0FBD0E0FAD0E026
:101CCA00F9D0E0B2E7F812020490004612069590A5
:101CDA001C0A74031205B69000461206791200FB1C
:101CEA00D0E0600F2426F582E4341CF583120685C1
:101CFA0012000A900046120695D0E0C3947FFDE4D4
:101D0A009400FC1202A67B187A727931783F12008D
:101D1A00FB90004612067912000A30000B7BD97A32
:091D2A005B79DE783E1200FB2219
:100546003F8000004120000042C80000447A0000BD
:10055600461C400047C35000497424004B1896803F
:100566004CBEBC205A0E1BCA6753C21C749DC5AE36
:10057600FB60065407601C23231205A4EB54386065
:100586000912059012059F1200FBECF8EDF9EEFA40
:10059600EFCB22EB12059F80F1543803241C900503
:1005A60046FE93FC0EEE93FD0EEE930ECE93FF22C7
:1005B600C0E0EFFBEEFAEDF9ECF81200FBD0E0F547
:1005C600F0EFFBEEFAEDF9ECF8120669A3A3A3A38C
:1005D600E8C0E0E9C0E0EAC0E0EBC0E0C0F012002D
:1005E600FB120685A3A3A3A312000AD0F0D0E0FB5A
:0D05F600D0E0FAD0E0F9D0E0F8D5F0D42242
:03000000021F7567
:0C1F7500787FE4F6D8FD758121021FBCC6
:10060300BB010689828A83E0225002E722BBFE02F5
:09061300E32289828A83E4932228
:10061C00BB010CE58229F582E5833AF583E0225093
:10062C0006E92582F8E622BBFE06E92582F8E222DD
:0D063C00E58229F582E5833AF583E49322F7
:10064900BB010689828A83F0225002F722BBFE0190
:02065900F3228A
:0E065B00C3E49FFFE49EFEE49DFDE49CFC22B0
:10066900E493FC740193FD740293FE740393FF22D7
:0C067900E0F8A3E0F9A3E0FAA3E0FB2204
:10068500E493F8740193F9740293FA740393FB22CB
:0C069500ECF0A3EDF0A3EEF0A3EFF022D8
:1006A100A8828583F0D083D0821206B81206B812D0
:1006B10006B81206B8E473E493A3C583C5F0C583F5
:1006C100C8C582C8F0A3C583C5F0C583C8C582C8A3
:0106D1002206
:1006D200F8E0FBA3A3E0F925F0F0E58215827002B1
:0706E2001583E0FA38F02255
:0906E900EBF0A3EAF0A3E9F02212
:1006F200D083D082F8E4937012740193700DA3A397
:1007020093F8740193F5828883E4737402936860AA
:06071200EFA3A3A380DFAA
:10228600EFB40A07740D122291740A309811A899B6
:10229600B8130CC2983098FDA899C298B811F630B8
:0722A60099FDC299F5992290
:101F81000221FBE493A3F8E493A34003F68001F25A
:101F910008DFF48029E493A3F85407240CC8C33361
:101FA100C4540F4420C8834004F456800146F6DF30
:101FB100E4800B0102040810204080902161E47E3E
:101FC100019360BCA3FF543F30E509541FFEE49325
:101FD100A360010ECF54C025E060A840B8E493A3EC
:101FE100FAE493A3F8E493A3C8C582C8CAC583CA17
:101FF100F0A3C8C582C8CAC583CADFE9DEE780BECF
:0121AF00002F
:00000001FF
