:100195002043726561746564206279205866730036
:10017C0078087C007D007BFF7A0179957E007F10EA
:09018C0011D375181011F980FE61
:1001A5002043726561746564206279205866730026
:10013D00C2A58F807F017E00314DD2A77F057E0045
:10014D00D3EF9400EE940040257DC7EDD394007459
:10015D0080948040127C01ECD39400748094804094
:0E016D00031C80F31D80E4EF1F70D51E80D2AE
:01017B002261
:0A01C100C2A7C2A612013DC2A72288
:0A01CB00C2A7D2A612013DC2A7226E
:1000F900781A7C007D007BFF7A0179A57E007F104C
:1001090011D3752A107F3831C17F0C31C17F063177
:10011900C17F0131C17F8031C1E4FBEBC3940F740E
:10012900809480500B741A2BF8E6FF31CB0B80EBCF
:040139007FC021C1A1
:030000000201B545
:0C01B500787FE4F6D8FD75812A02017CF9
:10000300E709F608DFFA8046E709F208DFFA803EDF
:1000130088828C83E709F0A3DFFA8032E309F608CC
:10002300DFFA8078E309F208DFFA807088828C8334
:10003300E309F0A3DFFA806489828A83E0A3F608E8
:10004300DFFA805889828A83E0A3F208DFFA804CC2
:1000530080D280FA80C680D4806980F28033801099
:1000630080A680EA809A80A880DA80E280CA803302
:1000730089828A83ECFAE493A3C8C582C8CCC5837A
:10008300CCF0A3C8C582C8CCC583CCDFE9DEE7804A
:100093000D89828A83E493A3F608DFF9ECFAA9F0C9
:1000A300EDFB2289828A83ECFAE0A3C8C582C8CC1F
:1000B300C583CCF0A3C8C582C8CCC583CCDFEADE38
:1000C300E880DB89828A83E493A3F208DFF980CC9A
:1000D30088F0EF60010E4E60C388F0ED2402B40493
:1000E3000050B9F582EB2402B4040050AF2323453A
:0600F3008223900053730C
:00000001FF
