:1007AF00410000FF410001FF4100020141004E00E6
:1007BF006031004F0101FFFFFF01010101FFFFFF4A
:1007CF00010101010101FF010101010101FF01010E
:1007DF00FFFFFFFFFF000201010101020101FFFF07
:0507EF00FFFFFF020006
:10095000900000E004F0E0FF3395E0FE743F2FF5D7
:0A0960008274003EF5837406F02255
:0B07F500EF1FAC0670011E4C70F622D6
:10096A00EFFDC374809480400DD3ED940974809494
:09097A008050037F01227F00225E
:10055600900081747FF0E4A3F075900FAF90EF6484
:100566000F60767FE87E031207F5AF90EF640F60A9
:100576006875900FAF90EF24F5601224FE60161494
:10058600601B2407701DE4900081F08016900081A6
:100596007401F0800E9000817402F0800690008154
:1005A6007403F07590F0AF90EF2450601324E06070
:1005B6001824F0601D24707020900081E0F08019EE
:1005C600900081E02404F08010900081E02408F07F
:1005D6008007900081E0240CF0900082E0FF3395C4
:1005E600E0FEC3EF9432EE648094805013AF90EF38
:1005F60064F0600C7F8C7E001207F5E004F080D971
:05060600900081E0FFFF
:01060B0022CC
:0109D70022FD
:0503AB00900081EFF05D
:1003B00090008312037A00000000900083E0F8A30D
:1003C000E0F9A3E0FAA3E0FBC000C001C002C00353
:1003D000900081E0FCE41202ABD003D002D001D047
:1003E0000012000A90008312036E90004EE0640138
:1003F0006033E4FFFE7D207C4190003BE0F8A3E009
:10040000F9A3E0FAA3E0FB1200FBC004C005C0069C
:10041000C007900081E0FCE41202ABD003D002D010
:1004200001D0008053E4900082F0900002E0FF9041
:100430000082E0C39F5025A3E0FCA3E0FDA3E0FE03
:10044000A3E0FF7BCD7ACC79CC783D1200FB900005
:100450008312036E900082E004F080CE90003BE0B7
:10046000FCA3E0FDA3E0FEA3E0FF900083E0F8A37F
:10047000E0F9A3E0FAA3E0FB12000A90003B1203AC
:010480006E0D
:010481002258
:10085300EF75F007A4244FF582E43400F583E582B5
:100863002DF582E43583F583E0F9FB3395E0FABA9D
:10087300FF06BBFF037F3C22EB4A70037F3D22E967
:10088300FF3395E0FEEF64014E70037F3E227F3F0E
:010893002242
:10098300900000E004F0E0FD3395E0FC743F2DF5AA
:090993008274003CF583EFF022B0
:10093400900000E0FF3395E0FE743F2FF5827400D1
:0B0944003EF583E0FF900000E014F09F
:01094F002285
:10080000900001E004F090003BE0FCA3E0FDA3E0D9
:10081000FEA3E0FFC004C005C006C007900001E0D1
:10082000FF3395E0FEEF7802C333CE33CED8F92400
:1008300003F58274003EF583D007D006D005D004BE
:1008400012036E90003B12037A00000000E4900057
:030850004EF02245
:1008D400900001E004F0C004C005C006C007E0FFBA
:1008E4003395E0FEEF7802C333CE33CED8F9240338
:1008F400F58274003EF583D007D006D005D00402FB
:02090400036E80
:10090600900001E0FF3395E0FEEF7802C333CE336B
:10091600CED8F92403F58274003EF583E0FCA3E00B
:0D092600FDA3E0FEA3E0FF900001E014F04F
:0109330022A1
:10060C0090008712036E90008FE0701F90008BE0BB
:10061C00FCA3E0FDA3E0FEA3E0FF900087E0F8A3BD
:10062C00E0F9A3E0FAA3E0FB02000A90008FE0647B
:10063C0001701F90008BE0F8A3E0F9A3E0FAA3E0AF
:10064C00FB900087E0FCA3E0FDA3E0FEA3E0FF022B
:10065C00000690008FE0640290008B701CE0FCA3FD
:10066C00E0FDA3E0FEA3E0FF900087E0F8A3E0F933
:10067C00A3E0FAA3E0FB0200FBE0F8A3E0F9A3E09F
:10068C00FAA3E0FB900087E0FCA3E0FDA3E0FEA34F
:06069C00E0FF120204223F
:06072E00900081EFF0FDD8
:10073400900000E0FF3395E0FE743F2FF5827400D3
:100744003EF583E0FF120853AB07120800EB24C305
:10075400600F14600F24027051900081E0FF0209C1
:1007640083020934120934900082EFF012090690D2
:10077400008312036E120906C004C005C006C00738
:10078400900083E0FCA3E0FDA3E0FEA3E0FF900063
:100794008B12036E900082E090008FF0D007D00699
:0A07A400D005D00412060C1208D490
:0107AE002228
:10048200800B900080E0FB7A00647F700A120556B0
:10049200900080EFF080EBEB647F4A7002A15590F0
:1004A2000080E0FF12096AEF6401700EE0FF1203A0
:1004B200AB900080E02430FFA152900080E0640AFB
:1004C2007008FF12072E7F2BA152900080E0640B70
:1004D20070097F0112072E7F2D8075900080E064E5
:1004E2000C70097F0212072E7F2A8064900080E040
:1004F200640D70097F0312072E7F2F8053900080B6
:10050200E0640E700F90004EE0700604F07F2E80C3
:100512003F0209D7900080E0640F70377F06120710
:100522002E7F3D1209CD900001E0FF3395E0FEEFF2
:100532007802C333CE33CED8F92403F58274003E59
:10054200F583E0FCA3E0FDA3E0FEA3E0FF1202DFDF
:030552001209CDBE
:010555002283
:0E09B50012099C12095012048212048280FB67
:10089400C2A58F807F017E001208A5D2A77F057EA6
:0108A4000053
:1008A500D3EF9400EE940040257DC7EDD3940074FA
:1008B50080948040127C01ECD39400748094804035
:0E08C500031C80F31D80E4EF1F70D51E80D24F
:0108D3002202
:0A09C300C2A7C2A6120894C2A72220
:0A09CD00C2A7D2A6120894C2A72206
:10099C007F381209C37F0C1209C37F061209C37F6B
:0909AC00011209C37F800209C396
:1000030002034BE86480F8E933E83360110460F0DD
:10001300ED33EC337009E8FCE9FDEAFEEBFF220463
:1000230060DED3EB9FEA9EE99DE8C2E78CF0C2F75E
:1000330095F0400CE8CCF8E9CDF9EACEFAEBCFFB2A
:1000430012031685D0F05804700320D5B3E804706A
:10005300075002B2D502035592D5EC0460F7E4CC05
:10006300C0E0C398F8603B94186008400DD0E0FBF3
:1000730002032DE4FBFAC9FC8028E830E406E4C956
:10008300FBE4CAFCE830E305E4C9CACBFCE8540747
:100093006010F8C3E913F9EA13FAEB13FBEC13FC52
:1000A300D8F130F52FC3E49CFCEF9BFFEE9AFEEDF5
:1000B30099FDD0E0FBEF4E4D4C701222DB0302039F
:1000C30052EC2CFCEF33FFEE33FEED33FDED30E766
:1000D300EB02032DEF2BFFEE3AFEED39FDD0E0FBF3
:1000E30050130BBB0003020355ED13FDEE13FEEF9C
:0800F30013FFEC13FC02032DC6
:1000FB00EC4D6011E8497017ED33EC3304600DE4FF
:10010B00FCFFFEFD22E933E8330470F802034B12C7
:10011B00031658046009E4CC2481500628500902C8
:10012B000355284003020352C0E0EB4A7044B980E8
:10013B0006D0E0FB020341EF4E701CBD8008EBFFC5
:10014B00EAFEE9FD80EBE98DF0A4FEE5F00201E4A7
:10015B00E9CDF9EAFEEBFFEF89F0A4FCE5F0CE89DF
:10016B00F0A42EFFE435F0CD89F0A42DFEE435F09C
:10017B008067EF4E7005BD80D780C3EF8BF0A4ACCA
:10018B00F0EE8BF0A42CFCE435F0F8EF8AF0A42C05
:10019B00E5F038FCE433CB8DF0A42CFCE5F03BF818
:1001AB00EE8AF0A42CFCE5F038F8E433CF89F0A408
:1001BB002CFCE5F038CF3400CE89F0A42FFFE5F00E
:1001CB003EFEE433C98DF0A42EFEE5F039CD8AF066
:1001DB00A42FFFE5F03EFEE43DFD33D0E0FB5007DE
:1001EB000BBB000F020355EC2CFCEF33FFEE33FE81
:0601FB00ED33FD02032DAF
:10020100020355EC5D046005E85904700302034BD9
:10021100120316580460F6EC4860F2EC7004FDFE1F
:10022100FF22C860DB2481C85009C39860025006D0
:100231000203529850CAF582E9294B4A7005AB82F4
:1002410002034175F0007C1A7880C3EF9BEE9AEDB2
:1002510099400DC3EF9BFFEE9AFEED99FDE842F048
:10026100DC23ACF0D0E0FFD0E0FED0E0FDAB82209B
:10027100E7101BEB60BAEC2CFCEF33FFEE33FEED25
:1002810033FD02032DE803F830E705C0F075F000F7
:10029100EF2FFFEE33FEED33FD40B830E7C280AA09
:1002A10075F020800E75F010800575F0087D007ED8
:1002B100007F003392D530D503120360EC33401038
:1002C100EF33FFEE33FEED33FDEC33FCD5F0ED22E1
:0E02D100E5F0247EA2D513CC92E7CDCEFF221D
:1002DF00EDD2E7CD33EC3392D524814006E4FFFE17
:1002EF00FDFC22FCE4CFCECDCC24E0501174FF8076
:1002FF00EDC3CC13CCCD13CDCE13CECF13CF047013
:07030F00F030D5DE020360AF
:10031600E9D2E7C933E833F892D5EDD2E7CD33EC2D
:0703260033FC5002B2D522A6
:10032D00EC30E7100FBF000C0EBE00080DBD000431
:10033D000BEB6014A2D5EB13FCED92E7FD2274FFDD
:10034D00FCFDFEFF22E480F8A2D574FF13FC7D8036
:03035D00E480EF4A
:030000000206A253
:0C06A200787FE4F6D8FD7581070206E9B8
:0E036000C3E49FFFE49EFEE49DFDE49CFC22AE
:0C036E00ECF0A3EDF0A3EEF0A3EFF02202
:10037A00A8828583F0D083D082120391120391124E
:10038A000391120391E473E493A3C583C5F0C58373
:10039A00C8C582C8F0A3C583C5F0C583C8C582C8CD
:0103AA002230
:1006AE000209B5E493A3F8E493A34003F68001F2A4
:1006BE0008DFF48029E493A3F85407240CC8C3334D
:1006CE00C4540F4420C8834004F456800146F6DF1C
:1006DE00E4800B01020408102040809007AFE47EF6
:1006EE00019360BCA3FF543F30E509541FFEE49311
:1006FE00A360010ECF54C025E060A840B8E493A3D8
:10070E00FAE493A3F8E493A3C8C582C8CAC583CA02
:10071E00F0A3C8C582C8CAC583CADFE9DEE780BEBA
:0107F4000004
:00000001FF
