:1006A400520004303132333435363738392B2D2A61
:1006B4002F28292E3D410001FF410002FF41000384
:1006C400014100610041000000603100620101FF4E
:1006D400FFFF01010101FFFFFF010101010101FF12
:1006E400010101010101FF0101FFFFFFFFFF000202
:0E06F40001010101020101FFFFFFFFFF0200F3
:0107F70022DF
:1008E000900001E004F0E0FF3395E0FE74522FF534
:0A08F0008274003EF5837406F022C6
:0B07EC00EF1FAC0670011E4C70F622DF
:1008FA00EFFDC374809480400DD3ED940974809405
:09090A008050037F01227F0022CE
:10044B009000A9747FF0E4A3F075900FAF90EF6468
:10045B000F60767FE87E031207ECAF90EF640F60BE
:10046B006875900FAF90EF24F5601224FE601614A0
:10047B00601B2407701DE49000A9F080169000A962
:10048B007401F0800E9000A97402F080069000A910
:10049B007403F07590F0AF90EF2450601324E0607C
:1004AB001824F0601D247070209000A9E0F08019D2
:1004BB009000A9E02404F080109000A9E02408F03B
:1004CB0080079000A9E0240CF09000AAE0FF339580
:1004DB00E0FEC3EF9432EE648094805013AF90EF44
:1004EB0064F0600C7F8C7E001207ECE004F080D986
:0504FB009000A9E0FFE4
:0105000022D8
:0107F80022DE
:0503740090009CEFF079
:1003790090009E1203430000000090009EE0F8A345
:10038900E0F9A3E0FAA3E0FBC000C001C002C0038A
:1003990090009CE0FCE41202ABD003D002D001D063
:1003A9000012000A90009E120337900061E0640178
:1003B9006033E4FFFE7D207C4190004EE0F8A3E02D
:1003C900F9A3E0FAA3E0FB1200FBC004C005C006D4
:1003D900C00790009CE0FCE41202ABD003D002D02D
:1003E90001D0008053E490009DF0900003E0FF905D
:1003F900009DE0C39F5025A3E0FCA3E0FDA3E0FE20
:10040900A3E0FF7BCD7ACC79CC783D1200FB90003C
:100419009E12033790009DE004F080CE90004EE0DC
:10042900FCA3E0FDA3E0FEA3E0FF90009EE0F8A39B
:10043900E0F9A3E0FAA3E0FB12000A90004E1203D0
:01044900377B
:01044A00228F
:1007AB00EF75F007A42462F582E43400F583E5824B
:1007BB002DF582E43583F583E0F9FB3395E0FABA46
:1007CB00FF06BBFF037F3C22EB4A70037F3D22E910
:1007DB00FF3395E0FEEF64014E70037F3E227F3FB7
:0107EB0022EB
:10091300900001E004F0E0FD3395E0FC74522DF506
:090923008274003CF583EFF02220
:1008C400900001E0FF3395E0FE74522FF58274002E
:0B08D4003EF583E0FF900001E014F00F
:0108DF0022F6
:10075800900002E004F090004EE0FCA3E0FDA3E06E
:10076800FEA3E0FFC004C005C006C007900002E079
:10077800FF3395E0FEEF7802C333CE33CED8F924A9
:1007880016F58274003EF583D007D006D005D00454
:1007980012033790004E12034300000000E490005B
:0307A80061F022DB
:10084000900002E004F0C004C005C006C007E0FF4D
:100850003395E0FEEF7802C333CE33CED8F92416B9
:10086000F58274003EF583D007D006D005D004028F
:0208700003374C
:10087200900002E0FF3395E0FEEF7802C333CE33FF
:10088200CED8F92416F58274003EF583E0FCA3E08D
:0D089200FDA3E0FEA3E0FF900002E014F0E3
:01089F002236
:1005010090009312033790009BE0701F900097E0DA
:10051100FCA3E0FDA3E0FEA3E0FF900093E0F8A3BD
:10052100E0F9A3E0FAA3E0FB02000A90009BE0647B
:1005310001701F900097E0F8A3E0F9A3E0FAA3E0AF
:10054100FB900093E0FCA3E0FDA3E0FEA3E0FF022B
:10055100000690009BE06402900097701CE0FCA3F1
:10056100E0FDA3E0FEA3E0FF900093E0F8A3E0F933
:10057100A3E0FAA3E0FB0200FBE0F8A3E0F9A3E0AB
:10058100FAA3E0FB900093E0FCA3E0FDA3E0FEA34F
:06059100E0FF120204224B
:060623009000A2EFF0FDC3
:10062900900001E0FF3395E0FE74522FF5827400CB
:100639003EF583E0FF1207ABAB07120758EB24C363
:10064900600F14600F240270519000A2E0FF0209AC
:10065900130208C41208C49000A3EFF012087290A4
:1006690000A4120337120872C004C005C006C007EF
:100679009000A4E0FCA3E0FDA3E0FEA3E0FF90004E
:10068900971203379000A3E090009BF0D007D006A3
:0A069900D005D0041205011208403C
:0106A3002234
:1007030075B0FF7FE87E031207EC20B00630B0FD22
:100713007F0A2220B10630B1FD7F0B2220B20630C2
:10072300B2FD7F0C2220B30630B3FD7F0D2220B42F
:100733000630B4FD7F0E2220B50630B5FD7F0F22B3
:1007430020B60630B6FD7F102220B70630B7FD7FF6
:0507530011227F7F224E
:10092C007F7FEF647F7011120703EF647F600122F9
:08093C0012044BEF647F60EA36
:010944002290
:1008A0001209451208E0900000E0FF12092C9000A8
:1008B000A8EFF0E02404F582E43400F583E0FF12B1
:0408C000096880E261
:10080000C2A58F807F017E00120811D2A77F057ECE
:0108100000E7
:10081100D3EF9400EE940040257DC7EDD39400748E
:1008210080948040127C01ECD394007480948040C9
:0E083100031C80F31D80E4EF1F70D51E80D2E3
:01083F002296
:0A095E00C2A7C2A6120800C2A72219
:0A096800C2A7D2A6120800C2A722FF
:100945007F3812095E7F0C12095E7F0612095E7FF1
:090955000112095E7F8002095EB7
:10000300020314E86480F8E933E83360110460F014
:10001300ED33EC337009E8FCE9FDEAFEEBFF220463
:1000230060DED3EB9FEA9EE99DE8C2E78CF0C2F75E
:1000330095F0400CE8CCF8E9CDF9EACEFAEBCFFB2A
:100043001202DF85D0F05804700320D5B3E80470A2
:10005300075002B2D502031E92D5EC0460F7E4CC3C
:10006300C0E0C398F8603B94186008400DD0E0FBF3
:100073000202F6E4FBFAC9FC8028E830E406E4C98E
:10008300FBE4CAFCE830E305E4C9CACBFCE8540747
:100093006010F8C3E913F9EA13FAEB13FBEC13FC52
:1000A300D8F130F52FC3E49CFCEF9BFFEE9AFEEDF5
:1000B30099FDD0E0FBEF4E4D4C701222DB0302039F
:1000C3001BEC2CFCEF33FFEE33FEED33FDED30E79D
:1000D300EB0202F6EF2BFFEE3AFEED39FDD0E0FB2B
:1000E30050130BBB000302031EED13FDEE13FEEFD3
:0800F30013FFEC13FC0202F6FE
:1000FB00EC4D6011E8497017ED33EC3304600DE4FF
:10010B00FCFFFEFD22E933E8330470F802031412FE
:10011B0002DF58046009E4CC248150062850090200
:10012B00031E28400302031BC0E0EB4A7044B98056
:10013B0006D0E0FB02030AEF4E701CBD8008EBFFFC
:10014B00EAFEE9FD80EBE98DF0A4FEE5F00201E4A7
:10015B00E9CDF9EAFEEBFFEF89F0A4FCE5F0CE89DF
:10016B00F0A42EFFE435F0CD89F0A42DFEE435F09C
:10017B008067EF4E7005BD80D780C3EF8BF0A4ACCA
:10018B00F0EE8BF0A42CFCE435F0F8EF8AF0A42C05
:10019B00E5F038FCE433CB8DF0A42CFCE5F03BF818
:1001AB00EE8AF0A42CFCE5F038F8E433CF89F0A408
:1001BB002CFCE5F038CF3400CE89F0A42FFFE5F00E
:1001CB003EFEE433C98DF0A42EFEE5F039CD8AF066
:1001DB00A42FFFE5F03EFEE43DFD33D0E0FB5007DE
:1001EB000BBB000F02031EEC2CFCEF33FFEE33FEB8
:0601FB00ED33FD0202F6E7
:1002010002031EEC5D046005E85904700302031447
:100211001202DF580460F6EC4860F2EC7004FDFE57
:10022100FF22C860DB2481C85009C39860025006D0
:1002310002031B9850CAF582E9294B4A7005AB822B
:1002410002030A75F0007C1A7880C3EF9BEE9AEDE9
:1002510099400DC3EF9BFFEE9AFEED99FDE842F048
:10026100DC23ACF0D0E0FFD0E0FED0E0FDAB82209B
:10027100E7101BEB60BAEC2CFCEF33FFEE33FEED25
:1002810033FD0202F6E803F830E705C0F075F0002F
:10029100EF2FFFEE33FEED33FD40B830E7C280AA09
:1002A10075F020800E75F010800575F0087D007ED8
:1002B100007F003392D530D503120329EC3340106F
:1002C100EF33FFEE33FEED33FDEC33FCD5F0ED22E1
:0E02D100E5F0247EA2D513CC92E7CDCEFF221D
:1002DF00E9D2E7C933E833F892D5EDD2E7CD33EC65
:0702EF0033FC5002B2D522DE
:1002F600EC30E7100FBF000C0EBE00080DBD000469
:100306000BEB6014A2D5EB13FCED92E7FD2274FF14
:10031600FCFDFEFF22E480F8A2D574FF13FC7D806D
:03032600E480EF81
:030000000205975F
:0C059700787FE4F6D8FD7581070205DED0
:0E032900C3E49FFFE49EFEE49DFDE49CFC22E5
:0C033700ECF0A3EDF0A3EEF0A3EFF02239
:10034300A8828583F0D083D08212035A12035A12F3
:10035300035A12035AE473E493A3C583C5F0C58318
:10036300C8C582C8F0A3C583C5F0C583C8C582C804
:010373002267
:1005A3000208A0E493A3F8E493A34003F68001F2C6
:1005B30008DFF48029E493A3F85407240CC8C33359
:1005C300C4540F4420C8834004F456800146F6DF28
:1005D300E4800B01020408102040809006A4E47E0E
:1005E300019360BCA3FF543F30E509541FFEE4931D
:1005F300A360010ECF54C025E060A840B8E493A3E4
:10060300FAE493A3F8E493A3C8C582C8CAC583CA0E
:10061300F0A3C8C582C8CAC583CADFE9DEE780BEC6
:0107020000F6
:00000001FF
