:1006A400520004303132333435363738392B2D2A61
:1006B4002F28292E3D410001FF41009FFF410003E7
:1006C400FF4100020141006500410000006031006B
:1006D4006E0101FFFFFF01010101FFFFFF010101A5
:1006E400010101FF010101010101FF0101FFFFFF00
:1006F400FFFF000201010101020101FFFFFFFFFFF3
:020704000200F1
:0107FF0022D7
:0707F80090000174FFF022E4
:0709920090009F74FFF022AA
:0709990090000374FFF0223F
:0B097300EF1FAC0670011E4C70F62256
:1008FD00EFFDC374809480400DD3ED940974809402
:09090D008050037F01227F0022CB
:10044B009000C4747FF0E4A3F075900FAF90EF644D
:10045B000F60767FE87E03120973AF90EF640F6035
:10046B006875900FAF90EF24F5601224FE601614A0
:10047B00601B2407701DE49000C4F080169000C42C
:10048B007401F0800E9000C47402F080069000C4DA
:10049B007403F07590F0AF90EF2450601324E0607C
:1004AB001824F0601D247070209000C4E0F08019B7
:1004BB009000C4E02404F080109000C4E02408F005
:1004CB0080079000C4E0240CF09000C5E0FF33954A
:1004DB00E0FEC3EF9432EE648094805013AF90EF44
:1004EB0064F0600C7F8C7E00120973E004F080D9FD
:0504FB009000C4E0FFC9
:0105000022D8
:0109A0002234
:050374009000B8EFF05D
:100379009000BA120343000000009000BAE0F8A30D
:10038900E0F9A3E0FAA3E0FBC000C001C002C0038A
:100399009000B8E0FCE41202ABD003D002D001D047
:1003A9000012000A9000BA120337900065E0640158
:1003B9006033E4FFFE7D207C4190004EE0F8A3E02D
:1003C900F9A3E0FAA3E0FB1200FBC004C005C006D4
:1003D900C0079000B8E0FCE41202ABD003D002D011
:1003E90001D0008053E49000B9F0900002E0FF9042
:1003F90000B9E0C39F5025A3E0FCA3E0FDA3E0FE04
:10040900A3E0FF7BCD7ACC79CC783D1200FB90003C
:10041900BA1203379000B9E004F080CE90004EE0A4
:10042900FCA3E0FDA3E0FEA3E0FF9000BAE0F8A37F
:10043900E0F9A3E0FAA3E0FB12000A90004E1203D0
:01044900377B
:01044A00228F
:10080000EF75F007A4246EF582E43400F583E582E9
:100810002DF582E43583F583E0F9FB3395E0FABAF0
:10082000FF06BBFF037F3C22EB4A70037F3D22E9BA
:10083000FF3395E0FEEF64014E70037F3E227F3F61
:010840002295
:10091600900001E004F0E0FD3395E0FC74522DF503
:090926008274003CF583EFF0221D
:1008E100900001E0FF3395E0FE74522FF582740011
:0B08F1003EF583E0FF900001E014F0F2
:0108FC0022D9
:10075C0090009FE004F090004EE0FCA3E0FDA3E0CD
:10076C00FEA3E0FFC004C005C006C00790009FE0D8
:10077C00FF3395E0FEEF7802C333CE33CED8F924A5
:10078C0016F58274003EF583D007D006D005D00450
:10079C0012033790004E12034300000000E4900057
:0307AC0065F022D3
:1008810090009FE004F0C004C005C006C007E0FF6F
:100891003395E0FEEF7802C333CE33CED8F9241678
:1008A100F58274003EF583D007D006D005D004024E
:0208B10003370B
:1008B30090009FE0FF3395E0FEEF7802C333CE3321
:1008C300CED8F92416F58274003EF583E0FCA3E04C
:0D08D300FDA3E0FEA3E0FF90009FE014F005
:0108E00022F5
:100501009000AF1203379000B7E0701F9000B3E086
:10051100FCA3E0FDA3E0FEA3E0FF9000AFE0F8A3A1
:10052100E0F9A3E0FAA3E0FB02000A9000B7E0645F
:1005310001701F9000B3E0F8A3E0F9A3E0FAA3E093
:10054100FB9000AFE0FCA3E0FDA3E0FEA3E0FF020F
:1005510000069000B7E064029000B3701CE0FCA3B9
:10056100E0FDA3E0FEA3E0FF9000AFE0F8A3E0F917
:10057100A3E0FAA3E0FB0200FBE0F8A3E0F9A3E0AB
:10058100FAA3E0FB9000AFE0FCA3E0FDA3E0FEA333
:06059100E0FF120204224B
:060623009000BEEFF0FDA7
:10062900900001E0FF3395E0FE74522FF5827400CB
:100639003EF583E0FF120800AB0712075CEB24C309
:10064900600F14600F240270519000BEE0FF020990
:10065900160208E11208E19000BFEFF01208B3900A
:1006690000C01203371208B3C004C005C006C00792
:100679009000C0E0FCA3E0FDA3E0FEA3E0FF900032
:10068900B31203379000BFE09000B7F0D007D0064F
:0A069900D005D004120501120881FB
:0106A3002234
:1007070075B0FF7FE87E0312097320B00630B0FD95
:100717007F0A2220B10630B1FD7F0B2220B20630BE
:10072700B2FD7F0C2220B30630B3FD7F0D2220B42B
:100737000630B4FD7F0E2220B50630B5FD7F0F22AF
:1007470020B60630B6FD7F102220B70630B7FD7FF2
:0507570011227F7F224A
:10092F007F7FEF647F7011120707EF647F600122F2
:08093F0012044BEF647F60EA33
:01094700228D
:1009610012092F74042FF582E43400F583E0FF02AD
:020971000988F3
:0109A1002233
:0109A2002232
:0109A3002231
:0109A4002230
:0109A500222F
:0109A600222E
:1007AF001209481207F8120992900000E0B40700EE
:1007BF0050F79007C725E073E1D5E1DAE1DFE1E417
:1007CF00E1E9E1EEE1F312096180DE1209A180D9BE
:1007DF001209A280D41209A380CF1209A480CA12D1
:0907EF0009A580C51209A680C00D
:10084100C2A58F807F017E00120852D2A77F057E4C
:0108510000A6
:10085200D3EF9400EE940040257DC7EDD39400744D
:1008620080948040127C01ECD39400748094804088
:0E087200031C80F31D80E4EF1F70D51E80D2A2
:010880002255
:0A097E00C2A7C2A6120841C2A722B8
:0A098800C2A7D2A6120841C2A7229E
:100948007F3812097E7F0C12097E7F0612097E7F8E
:090958000112097E7F8002097E74
:10000300020314E86480F8E933E83360110460F014
:10001300ED33EC337009E8FCE9FDEAFEEBFF220463
:1000230060DED3EB9FEA9EE99DE8C2E78CF0C2F75E
:1000330095F0400CE8CCF8E9CDF9EACEFAEBCFFB2A
:100043001202DF85D0F05804700320D5B3E80470A2
:10005300075002B2D502031E92D5EC0460F7E4CC3C
:10006300C0E0C398F8603B94186008400DD0E0FBF3
:100073000202F6E4FBFAC9FC8028E830E406E4C98E
:10008300FBE4CAFCE830E305E4C9CACBFCE8540747
:100093006010F8C3E913F9EA13FAEB13FBEC13FC52
:1000A300D8F130F52FC3E49CFCEF9BFFEE9AFEEDF5
:1000B30099FDD0E0FBEF4E4D4C701222DB0302039F
:1000C3001BEC2CFCEF33FFEE33FEED33FDED30E79D
:1000D300EB0202F6EF2BFFEE3AFEED39FDD0E0FB2B
:1000E30050130BBB000302031EED13FDEE13FEEFD3
:0800F30013FFEC13FC0202F6FE
:1000FB00EC4D6011E8497017ED33EC3304600DE4FF
:10010B00FCFFFEFD22E933E8330470F802031412FE
:10011B0002DF58046009E4CC248150062850090200
:10012B00031E28400302031BC0E0EB4A7044B98056
:10013B0006D0E0FB02030AEF4E701CBD8008EBFFFC
:10014B00EAFEE9FD80EBE98DF0A4FEE5F00201E4A7
:10015B00E9CDF9EAFEEBFFEF89F0A4FCE5F0CE89DF
:10016B00F0A42EFFE435F0CD89F0A42DFEE435F09C
:10017B008067EF4E7005BD80D780C3EF8BF0A4ACCA
:10018B00F0EE8BF0A42CFCE435F0F8EF8AF0A42C05
:10019B00E5F038FCE433CB8DF0A42CFCE5F03BF818
:1001AB00EE8AF0A42CFCE5F038F8E433CF89F0A408
:1001BB002CFCE5F038CF3400CE89F0A42FFFE5F00E
:1001CB003EFEE433C98DF0A42EFEE5F039CD8AF066
:1001DB00A42FFFE5F03EFEE43DFD33D0E0FB5007DE
:1001EB000BBB000F02031EEC2CFCEF33FFEE33FEB8
:0601FB00ED33FD0202F6E7
:1002010002031EEC5D046005E85904700302031447
:100211001202DF580460F6EC4860F2EC7004FDFE57
:10022100FF22C860DB2481C85009C39860025006D0
:1002310002031B9850CAF582E9294B4A7005AB822B
:1002410002030A75F0007C1A7880C3EF9BEE9AEDE9
:1002510099400DC3EF9BFFEE9AFEED99FDE842F048
:10026100DC23ACF0D0E0FFD0E0FED0E0FDAB82209B
:10027100E7101BEB60BAEC2CFCEF33FFEE33FEED25
:1002810033FD0202F6E803F830E705C0F075F0002F
:10029100EF2FFFEE33FEED33FD40B830E7C280AA09
:1002A10075F020800E75F010800575F0087D007ED8
:1002B100007F003392D530D503120329EC3340106F
:1002C100EF33FFEE33FEED33FDEC33FCD5F0ED22E1
:0E02D100E5F0247EA2D513CC92E7CDCEFF221D
:1002DF00E9D2E7C933E833F892D5EDD2E7CD33EC65
:0702EF0033FC5002B2D522DE
:1002F600EC30E7100FBF000C0EBE00080DBD000469
:100306000BEB6014A2D5EB13FCED92E7FD2274FF14
:10031600FCFDFEFF22E480F8A2D574FF13FC7D806D
:03032600E480EF81
:030000000205975F
:0C059700787FE4F6D8FD7581070205DED0
:0E032900C3E49FFFE49EFEE49DFDE49CFC22E5
:0C033700ECF0A3EDF0A3EEF0A3EFF02239
:10034300A8828583F0D083D08212035A12035A12F3
:10035300035A12035AE473E493A3C583C5F0C58318
:10036300C8C582C8F0A3C583C5F0C583C8C582C804
:010373002267
:1005A3000207AFE493A3F8E493A34003F68001F2B8
:1005B30008DFF48029E493A3F85407240CC8C33359
:1005C300C4540F4420C8834004F456800146F6DF28
:1005D300E4800B01020408102040809006A4E47E0E
:1005E300019360BCA3FF543F30E509541FFEE4931D
:1005F300A360010ECF54C025E060A840B8E493A3E4
:10060300FAE493A3F8E493A3C8C582C8CAC583CA0E
:10061300F0A3C8C582C8CAC583CADFE9DEE780BEC6
:0107060000F2
:00000001FF
